:1000000010E0A0E6B0E0ECE8F7E003C0C895319658
:100010000D92AC36B107D1F720E0ACE6B0E001C0FC
:100020001D92A237B207E1F78F929F92AF92BF92D3
:10003000CF92DF92EF92FF920F931F93862E972E0F
:10004000A82EB92E672B682B692B81F182E08816C8
:100050009104A104B10478F141E050E060E070E067
:1000600081E090E0A0E0B0E0C12CD12CE12CF12C9B
:100070003F2D2E2D1D2D0C2D080F191F2A1F3B1F44
:100080004F5F5F4F6F4F7F4FC82ED92EEA2EFB2E4A
:10009000B32FA22F912F802F84169506A606B706A0
:1000A00039F7602F712F822F932F09C060E070E025
:1000B00080E090E004C061E070E080E090E01F919B
:1000C0000F91FF90EF90DF90CF90BF90AF909F90F7
:1000D0008F900895CF92DF92EF92FF920F931F932C
:1000E0004FEF59EC6AE97BE381E090E0A0E0B0E0FB
:1000F000C12CD12CE12CF12C082F192F2A2F3B2FAA
:100100000C0D1D1D2E1D3F1D415051096109710926
:10011000C82ED92EEA2EFB2EB32FA22F912F802F7F
:1001200059F73F932F931F930F9380E690E09F938F
:100130008F930FD00F900F900F900F900F900F9004
:1001400080E090E01F910F91FF90EF90DF90CF90B3
:100150000895A0E0B0E0EEEAF0E0F0C24C2F5D2F91
:100160004B5F5F4FE42FF52F619171914E2F5F2F01
:1001700080916E0090916F0002D0E2E0FBC2ABE094
:10018000B0E0E4ECF0E0CAC2C82ED92EE62EF72E7D
:10019000042F152FE82FF92F17821682838181FFF4
:1001A000EFC18C2F9D2F0196682E792EEC2DFD2D01
:1001B0009381EE2DFF2D93FDC89593FF008031961E
:1001C000802DEE2EFF2E882309F4D5C1853251F4FF
:1001D00093FDC89593FF00803196802DEE2EFF2E63
:1001E000853229F46C2D7D2D90E0E8D1DFCF912C64
:1001F000212C312CFFE1F315E0F08B3279F038F44B
:10020000803279F08332A9F4232D206110C08D3221
:1002100059F0803371F4232D216009C0832D826051
:10022000382EE32DE46022C0F32DF86025C0322E75
:1002300027C037FC31C020ED280F2A3088F436FE65
:1002400006C0892D6AE061D2922E980E19C0822DC7
:100250006AE05BD2222E280E832D8062382E10C0D9
:100260008E3231F436FC87C1E32DE0643E2E08C0A7
:100270008C3621F4F32DF0683F2E02C0883661F4ED
:10028000EE2DFF2D93FDC89593FF00803196802DB4
:10029000EE2EFF2E8111AECF982F9F7D9554933077
:1002A00028F40C5F1F4F2FE329830EC0833631F0F3
:1002B000833781F0833509F067C027C0E02FF12F25
:1002C000808189830E5F1F4F88248394912CA62CF4
:1002D000B72C17C0402E512EF2E04F0E511CE02FCC
:1002E000F12FA080B18036FE03C0692D70E002C0FE
:1002F0006FEF7FEF8A2D9B2D55D1882E992E042DDF
:10030000152DF32DFF773F2E1AC0402E512E22E0DF
:10031000420E511CE02FF12FA080B18036FE03C0A9
:10032000692D70E002C06FEF7FEF8A2D9B2D2DD1DC
:10033000882E992EF32DF0683F2E042D152D33FCB9
:100340001FC0822D90E088169906D0F46C2D7D2D6B
:1003500080E290E033D12A94F4CFEA2DFB2D37FCD4
:10036000C89537FE00803196802DAE2EBF2E6C2DA5
:100370007D2D90E023D121102A9421E0821A91084A
:100380008114910451F7EDC0843611F0893649F596
:10039000E02FF12F37FE07C0608171818281938148
:1003A0000C5F1F4F08C060817181072E000C880B05
:1003B000990B0E5F1F4FF32DFF763F2E97FF09C05D
:1003C00090958095709561957F4F8F4F9F4FF06806
:1003D0003F2E2AE030E0462D572D33D1882E861847
:1003E00046C0853731F4232D2F7EB22E2AE030E02F
:1003F00025C0932D997FB92E8F36C1F018F488351A
:1004000079F0B9C0803719F0883721F0B4C0E92FEE
:10041000E061BE2EB4FE0DC0FB2DF460BF2E09C0FE
:1004200034FE0AC0292F2660B22E06C028E030E034
:1004300005C020E130E002C020E132E0E02FF12FE2
:10044000B7FE07C060817181828193810C5F1F4F6D
:1004500006C06081718180E090E00E5F1F4F462DE5
:10046000572DEFD0882E8618FB2DFF773F2E36FEB6
:100470000DC0232D2E7FA22E891458F434FE0BC0FC
:1004800032FC09C0832D8E7EA82E05C0B82CA32C6B
:1004900003C0B82C01C0B92CA4FE10C0EC2FFD2F56
:1004A000E80DF11D8081803321F49A2D997EA92ECB
:1004B00009C0A2FE06C0B394B39404C08A2D867806
:1004C00009F0B394A3FC11C0A0FE06C0B21488F4D6
:1004D000280C922C9B180EC0B21460F46C2D7D2D4C
:1004E00080E290E06BD0B394F7CFB21418F42B18DD
:1004F00002C0982C212CA4FE11C06C2D7D2D80E310
:1005000090E05CD0A2FE18C0A1FC03C088E790E098
:1005100002C088E590E06C2D7D2D0DC08A2D867877
:1005200059F0A1FE02C08BE201C080E2A7FC8DE27F
:100530006C2D7D2D90E042D0891438F46C2D7D2DEA
:1005400080E390E03BD09A94F7CF8A94E62DF72D84
:10055000E80DF11D80816C2D7D2D90E02FD0811054
:10056000F4CF222009F422CE6C2D7D2D80E290E084
:1005700025D02A94F6CFEC2DFD2D8681978102C0DF
:100580008FEF9FEF2B96E2E1E5C0E82FF92FC8959A
:100590003196615070400110D0F7809590958E0F84
:1005A0009F1F0895E82FF92F6150704001900110AE
:1005B000D8F7809590958E0F9F1F08950F931F93E6
:1005C000CF93DF93E62FF72F238121FD03C08FEF19
:1005D0009FEF32C022FF17C04681578124813581A9
:1005E000421753074CF4A081B1812A2F3B2F2F5F74
:1005F0003F4F318320838C93268137812F5F3F4F7C
:100600003783268319C0062F172FD92FC82FE62F1F
:10061000F72F0084F185E02D0995892BC1F6A02FD5
:10062000B12F16968D919C911797019617969C93D2
:100630008E9316978C2F9D2FDF91CF911F910F9145
:100640000895E42FF52FAA27283069F1203199F178
:10065000E8946F936E7F6E5F7F4F8F4F9F4FAF4FCA
:10066000B1E041D0B4E03FD0670F781F891F9A1FD7
:10067000A11D680F791F8A1F911DA11D6A0F711D91
:10068000811D911DA11D23D009F468943F91062E70
:10069000000C3019000C000C3019305D3193CEF68F
:1006A0008E2F9F2F0895462F4770405D4193B3E0F2
:1006B0000FD0C9F7F5CF462F4F70405D4A3318F081
:1006C000495D31FD4052419302D0A9F7E9CFB4E032
:1006D000A6959795879577956795BA95C9F70097E9
:1006E000610571050895262F372F482F592F0A2E9F
:1006F00006945795479537952795BA95C9F7620F90
:10070000731F841F951FA01D0895002480FD060EF1
:10071000660F11F08695D1F7802D08952F923F92A4
:100720004F925F926F927F928F929F92AF92BF9201
:10073000CF92DF92EF92FF920F931F93CF93DF93AD
:10074000CDB7DEB7CA1BDB0B0FB6F894DEBF0FBE0A
:10075000CDBF09942A88398848885F846E847D8457
:100760008C849B84AA84B984C884DF80EE80FD8059
:100770000C811B81AA81B981CE0FD11D0FB6F894CF
:0C078000DEBF0FBECDBFCA2FDB2F0895D7
:0C078C00526573756C7420256C750A00B2
:00000001FF
