:100000000C943D000C9465000C9465000C94650004
:100010000C9465000C9465000C9465000C946500CC
:100020000C9465000C9465000C9465000C946500BC
:100030000C9465000C9465000C9465000C946500AC
:100040000C9408030C9465000C9478030C945203F0
:100050000C9465000C9465000C9465000C9465008C
:100060000C9465000C946500456E74657220796F80
:1000700075722070696E3A000C0511241FBECFEF17
:10008000D8E0DEBFCDBF22E0AEE9B1E001C01D92F5
:10009000A934B207E1F711E0A0E0B1E0E6EFFEE03D
:1000A00002C005900D92AE39B107D9F710E0CDE34B
:1000B000D0E004C02197FE010E947C05CC33D1071B
:1000C000C9F70E94AA030C9479070C940000789455
:1000D00084B5826084BD84B5816084BD85B582604D
:1000E00085BD85B5816085BDEEE6F0E080818160EB
:1000F0008083E1E8F0E010828081826080838081EB
:1001000081608083E0E8F0E0808181608083E1EBC2
:10011000F0E0808184608083E0EBF0E080818160AA
:100120008083EAE7F0E08081846080838081826060
:100130008083808181608083808180688083109249
:10014000C10008952FB7F8946091A4017091A501A2
:100150008091A6019091A7012FBF08950F931F933F
:100160000E94A2006093B0017093B1018093B2012C
:100170009093B301E091A801F091A9010284F38565
:10018000E02D88EA91E0099597FF1DC00E94A2002A
:100190000091B0011091B1012091B2013091B301F1
:1001A000601B710B820B930B0091AC011091AD01A0
:1001B0002091AE013091AF0160177107820793075C
:1001C000C8F28FEF9FEF1F910F910895AF92BF92EA
:1001D000CF92DF92EF92FF920F931F93CF93DF9313
:1001E0006C017B018B01040F151FEB015E01AE1842
:1001F000BF08C017D10759F06991D601ED91FC9164
:100200000190F081E02DC6010995892B79F7C50190
:10021000DF91CF911F910F91FF90EF90DF90CF90E2
:10022000BF90AF900895FC01538D448D252F30E091
:10023000842F90E0821B930B541710F0CF960895F3
:1002400001970895FC01918D828D981761F0A28D20
:10025000AE0FBF2FB11D5D968C91928D9F5F9F73E6
:10026000928F90E008958FEF9FEF0895FC01918D9C
:10027000828D981731F0828DE80FF11D858D90E009
:1002800008958FEF9FEF0895FC01918D228D892FA6
:1002900090E0805C9F4F821B91098F73992708958E
:1002A00088EA91E00E94440121E0892B09F420E0D2
:1002B000822F089580E090E0892B29F00E94500160
:1002C00081110C9400000895FC01A48DA80FB92F92
:1002D000B11DA35ABF4F2C91848D90E001968F736E
:1002E0009927848FA689B7892C93A089B1898C918D
:1002F00080648C93938D848D981306C00288F38953
:10030000E02D80818F7D80830895EF92FF920F937F
:100310001F93CF93DF93EC01F62E81E0888F9B8DA6
:100320008C8D981316C0E889F989808185FF11C0EA
:10033000EE89FF896083E889F98980818064808300
:1003400081E090E0DF91CF911F910F91FF90EF90AE
:1003500008950B8D10E00F5F1F4F0F731127E02ED4
:100360008C8D8E110CC00FB607FCFACFE889F98985
:10037000808185FFF5CFCE010E946401F1CFEB8D26
:10038000EC0FFD2FF11DE35AFF4FF0820B8FEA892E
:10039000FB8980818062D3CFCF93DF93EC01888D7E
:1003A0008823B9F0AA89BB89E889F9898C9185FDF0
:1003B00003C0808186FD0DC00FB607FCF7CF8C917E
:1003C00085FFF2CF808185FFEDCFCE010E946401D1
:1003D000E9CFDF91CF91089521E030E0883411F02A
:1003E00030E020E0C901089521E030E0883411F0C8
:1003F00030E020E0C901089521E030E08F3411F0B1
:1004000030E020E0C901089521E030E0813311F0AF
:1004100030E020E0C901089521E030E0893311F097
:1004200030E020E0C901089521E030E0873411F088
:1004300030E020E0C901089521E030E0873411F078
:1004400030E020E0C901089521E030E0893411F066
:1004500030E020E0C901089521E030E0873311F059
:1004600030E020E0C901089521E030E0873311F049
:1004700030E020E0C901089521E030E0863511F038
:1004800030E020E0C901089521E030E0863511F028
:1004900030E020E0C901089521E030E08B3411F014
:1004A00030E020E0C901089521E030E08B3411F004
:1004B00030E020E0C901089521E030E08E3411F0F1
:1004C00030E020E0C901089521E030E0893511F0E5
:1004D00030E020E0C901089521E030E0863411F0D9
:1004E00030E020E0C901089521E030E0843511F0CA
:1004F00030E020E0C901089521E030E0843511F0BA
:1005000030E020E0C901089521E030E0853311F0AA
:1005100030E020E0C901089521E030E0873511F096
:1005200030E020E0C901089521E030E0853411F089
:1005300030E020E0C901089521E030E08B3411F073
:1005400030E020E0C901089521E030E08A3511F063
:1005500030E020E0C901089521E030E0803311F05F
:1005600030E020E0C901089521E030E0823511F04B
:1005700030E020E0C901089521E030E0843411F03A
:1005800030E020E0C901089521E030E0803511F02D
:1005900030E020E0C9010895FC0101900020E9F756
:1005A0003197AF01481B590BE091A801F091A901C7
:1005B0000280F381E02DBC0188EA91E009940F9359
:1005C0001F93CF93DF93EC018B0188819981009772
:1005D00059F02A813B812617370730F081E0DF91FF
:1005E000CF911F910F910895B8016F5F7F4F0E94C7
:1005F000A306009759F0998388831B830A832C8173
:100600003D81232B59F7FC011082E8CF80E0E7CF32
:100610001F920F920FB60F9211242F933F938F9337
:100620009F93AF93BF938091A4019091A501A09156
:10063000A601B091A7013091A30123E0230F2D372C
:1006400058F50196A11DB11D2093A3018093A4012B
:100650009093A501A093A601B093A70180919F015B
:100660009091A001A091A101B091A2010196A11DBC
:10067000B11D80939F019093A001A093A101B0931D
:10068000A201BF91AF919F918F913F912F910F90B8
:100690000FBE0F901F90189526E8230F0296A11DFC
:1006A000B11DD2CF1F920F920FB60F9211242F932C
:1006B0003F934F935F936F937F938F939F93AF93EA
:1006C000BF93EF93FF9388EA91E00E946401FF914A
:1006D000EF91BF91AF919F918F917F916F915F91BA
:1006E0004F913F912F910F900FBE0F901F90189533
:1006F0001F920F920FB60F9211242F938F939F93F7
:10070000EF93FF93E091B801F091B9018081E091FE
:10071000BE01F091BF0182FD1BC090818091C1019B
:100720008F5F8F732091C201821741F0E091C10168
:10073000F0E0E855FE4F958F8093C101FF91EF9156
:100740009F918F912F910F900FBE0F901F90189532
:100750008081F4CFCF93DF93CDB7DEB728970FB664
:10076000F894DEBF0FBECDBF0E946700E091B801D4
:10077000F091B90182E08083E091B401F091B5017C
:100780001082E091B601F091B70180E18083109270
:10079000C001E091BC01F091BD0186E08083E09151
:1007A000BA01F091BB01808180618083E091BA0140
:1007B000F091BB01808188608083E091BA01F09163
:1007C000BB01808180688083E091BA01F091BB0118
:1007D00080818F7D808388EA91E00E94CC0120E0B7
:1007E000A22E20E0B22E08E610E0F8016491662304
:1007F00071F0E091A801F091A9010190F081E02D44
:1008000088EA91E009950F5F1F4F892B71F788E8FF
:1008100091E00E94CC0288EA91E00E944401892B79
:10082000D1F31A8219821C821B821E821D8270E003
:1008300060E0CE0101960E94DF0229813A81811198
:100840002BC02115310519F0C9010E941A061A8220
:1008500019821E821D821C821B820E94AE000D81A5
:100860001E8197FD21C08F8318860F5F1F4FB8012F
:10087000CE0101960E94DF02882379F329813A8113
:100880008D819E81BE01695F7F4F820F931F0E9401
:1008900072071E830D83E1CF1E821D826AE871E01C
:1008A000C9010E947207D9CFC980DA80C114D1046E
:1008B00021F076010115110539F58D819E814C9746
:1008C00009F067C090E5E92E91E0F92E10E000E014
:1008D0008D819E810817190708F073C0D701ED912B
:1008E000FD917D01A981BA81109709F043C0109252
:1008F0009E01AEE9B1E08C910995892B09F449C0BC
:100900000F5F1F4FE5CF74014701FFEF8F1A9F0A5A
:10091000D7018C91082E000C990B0E943905892B68
:1009200091F7015011090C0D1D1DF8018081082E51
:10093000000C990B0E943905892B31F00E151F050B
:1009400018F001501109F1CFA8014F5F5F4F4E1908
:100950005F095E834D83CE14DF0420F4B701C60126
:100960000E946907E981FA818D819E81E80FF91F54
:100970001082A3CFA00FB11FBECFE00FF11F38C070
:100980008AE891E00E94CC0288E891E00E94CC02C3
:10099000FFCF8BE891E00E94CC0288E891E00E94B2
:1009A000CC0289819A810E941A06A114B10409F42B
:1009B0001ACF0E945001882309F415CF0E9400002D
:1009C00012CF80E991E00E94CC0288E1E82E81E01C
:1009D000F82E10E000E08D819E810817190780F63F
:1009E000E981FA81309749F610929E01EEE9F1E033
:1009F000D7018C91B2E0EB0EF11C60816827E09189
:100A0000A801F091A9010190F081E02D88EA91E020
:100A100009950F5F1F4FDFCFE8EAF1E013821282E2
:100A200088EE93E0A0E0B0E084839583A683B7834B
:100A30008AE091E09183808385EC90E095878487BC
:100A400084EC90E09787868780EC90E0918B808B98
:100A500081EC90E0938B828B82EC90E0958B848B81
:100A600086EC90E0978B868B118E128E138E148EEF
:100A7000089591110C944205803219F089508550E7
:100A8000C8F708959927882708952F923F924F928B
:100A90005F926F927F928F929F92AF92BF92CF920E
:100AA000DF92EF92FF920F931F93CF93DF93CDB717
:100AB000DEB7CA1BDB0B0FB6F894DEBF0FBECDBF8F
:100AC00009942A88398848885F846E847D848C8460
:100AD0009B84AA84B984C884DF80EE80FD800C8169
:100AE0001B81AA81B981CE0FD11D0FB6F894DEBF4C
:100AF0000FBECDBFED010895EE0FFF1F0590F491DD
:100B0000E02D09940F931F93CF93DF9382309105CB
:100B100010F482E090E0E0914702F091480220E07A
:100B200030E0A0E0B0E0309719F1408151810281BE
:100B3000138148175907C8F08417950769F410976F
:100B400031F012960C93129713961C9327C00093C2
:100B500047021093480222C02115310519F04217AF
:100B6000530718F49A01BD01EF01DF01F801DBCF53
:100B700021153105F9F0281B390B2430310580F49B
:100B80008A819B816115710521F0FB01938382832A
:100B900004C09093480280934702FE01329644C0FD
:100BA000FE01E20FF31F81939193225031093983A3
:100BB00028833AC02091450230914602232B41F40C
:100BC00020910201309103013093460220934502A7
:100BD00020910001309101012115310541F42DB71B
:100BE0003EB74091040150910501241B350BE09163
:100BF0004502F0914602E217F307A0F42E1B3F0BCB
:100C00002817390778F0AC014E5F5F4F241735077E
:100C100048F04E0F5F1F5093460240934502819368
:100C2000919302C0E0E0F0E0CF01DF91CF911F91FE
:100C30000F910895CF93DF93009709F481C0FC01D1
:100C4000329713821282A0914702B0914802109706
:100C500081F420813181820F931F209145023091D0
:100C600046022817390751F5F0934602E0934502F2
:100C700067C0ED0120E030E0CE17DF0740F44A8185
:100C80005B819E0141155105F1F0EA01F5CFD38357
:100C9000C28340815181840F951FC817D90759F429
:100CA00088819981840F951F0296918380838A8120
:100CB0009B81938382832115310529F4F0934802A7
:100CC000E09347023DC0E901FB83EA8349915991D2
:100CD000C40FD51FEC17FD0761F480819181840F4B
:100CE000951F0296E90199838883828193819B8372
:100CF0008A83E0E0F0E012968D919C911397009723
:100D000019F0FD01DC01F7CF8D919C9111979D01A8
:100D10002E5F3F4F820F931F209145023091460274
:100D20002817390769F4309729F410924802109275
:100D3000470202C013821282B0934602A09345027A
:100D4000DF91CF910895A0E0B0E0E9EAF6E00C94DD
:100D50004905EC01009721F4CB010E948205B4C043
:100D6000FC01E60FF71F9C0122503109E217F3073F
:100D700008F4A8C0D9010D911C9111970617170707
:100D8000B0F00530110508F49BC0C8010497861720
:100D9000970708F495C002501109061B170B019321
:100DA00011936D937C93CF010E941A0689C05B0159
:100DB000A01AB10A4C01800E911EA0914702B09179
:100DC0004802612C712CE12CF12C109709F446C0DB
:100DD0008D919C911197A815B905B1F56C0142E070
:100DE000C40ED11CCA14DB0478F14C018A189B088C
:100DF000640142E0C40ED11C1296BC901297139667
:100E0000AC91B5E0CB16D10440F0B282A3839182BD
:100E10008082D9016D937C9309C00E5F1F4F800FB4
:100E2000911FF90191838083EB2DFA2FE114F104D6
:100E300031F0D7011396FC93EE93129741C0F093D3
:100E40004802E09347023CC06816790608F43C016A
:100E50007D0112960D90BC91A02DB7CF80914502D7
:100E60009091460288169906E1F466167706C8F452
:100E70008091000190910101009741F48DB79EB7D8
:100E80004091040150910501841B950BE817F90767
:100E9000C8F4F0934602E0934502F9017183608340
:100EA0000FC0CB010E9482057C01009759F0A80178
:100EB000BE010E946907CE010E941A06C70104C044
:100EC000CE0102C080E090E0CDB7DEB7EEE00C943A
:100ED0006505FB01DC0102C001900D9241505040BC
:100EE000D8F70895FB01DC0101900D920020E1F795
:060EF0000895F894FFCF05
:100EF600000049022000000000008501E600130101
:100F0600CC0144012201360122006800310029008B
:100F16000D005E0031002C002E0037000800310065
:100F26005A003A0028003800170029002E003D001C
:100F360033006800300028004C006E003A0038008C
:100F46004C022C02C402BC02B402AC027402A4021B
:100F56009C0294028C023C0284027C026C026402B3
:100F6600EC015C02140254024402340224021C0204
:100F76000C020402FC01F4010D0A004E6F706500BC
:0E0F860054686520666C61672069733A20002C
:00000001FF
