:100000000C94C8010C94EE010C94EE010C94EE01DA
:100010000C94EE010C94EE010C94EE010C94EE01A4
:100020000C94EE010C94EE010C94EE010C94EE0194
:100030000C94EE010C94EE010C94EE010C94EE0184
:100040000C94EE010C94EE010C94EE010C94EE0174
:100050000C94EE010C94EE010C94EE010C94EE0164
:100060000C94EE010C94EE010C94EE010C94EE0154
:100070000C94EE010C94EE010C94EE010C94EE0144
:100080000C94EE010C94EE010C94EE010C94EE0134
:100090000C94EE010C94EE010C94EE010C94EE0124
:1000A0000C94EE010C94EE010C94EE010C94EE0114
:1000B0000C94EE010C94EE010C94EE010C94EE0104
:1000C0000C94EE010C94EE010C94EE010C94EE01F4
:1000D0000C94EE010C94EE010C94EE010C94EE01E4
:1000E0000C94EE010C94EE010C94EE010C94EE01D4
:1000F0000C94EE010C94EE010C94EE010C94EE01C4
:100100000C94EE010C94EE010C94EE010C94EE01B3
:100110000C94EE010C94EE010C94EE010C94EE01A3
:100120000C94EE010C94EE010C94EE010C94EE0193
:100130000C94EE010C94EE010C94EE010C94EE0183
:100140000C94EE010C94EE010C94EE010C94EE0173
:100150000C94EE010C94EE010C94EE010C94EE0163
:100160000C94EE010C94EE010C94EE010C94EE0153
:100170000C94EE010C94EE010C94EE010C94EE0143
:100180000C94EE010C94EE010C94EE010C94EE0133
:100190000C94EE010C94EE010C94EE010C94EE0123
:1001A0000C94EE010C94EE010C94EE010C94EE0113
:1001B0000C94EE010C94EE010C94EE010C94EE0103
:1001C0000C94EE010C94EE010C94EE010C94EE01F3
:1001D0000C94EE010C94EE010C94EE010C94EE01E3
:1001E0000C94EE010C94EE010C94EE010C94EE01D3
:1001F0000C94EE010C94EE010C94EE01011A061A17
:100200000B1A101A151A1A1A1F1A241A291A2E1A3A
:10021000331A0C940B1A0C941F1A0C94011A0C9498
:100220003A180C94101A0C94241A0C94331A0C9447
:10023000151A0C940E180C9490180C94061A0C9421
:10024000291A0C941A1A0C942E1A67E6096A85AEBC
:1002500067BB72F36E3C3AF54FA57F520E518C6826
:10026000059BABD9831F19CDE05B982F8A4291443F
:100270003771CFFBC0B5A5DBB5E95BC25639F111CB
:10028000F159A4823F92D55E1CAB98AA07D8015BB6
:100290008312BE853124C37D0C55745DBE72FEB1E0
:1002A000DE80A706DC9B74F19BC1C1699BE4864795
:1002B000BEEFC69DC10FCCA10C246F2CE92DAA84E2
:1002C000744ADCA9B05CDA88F97652513E986DC662
:1002D00031A8C82703B0C77F59BFF30BE0C64791C9
:1002E000A7D55163CA0667292914850AB72738217B
:1002F0001B2EFC6D2C4D130D385354730A65BB0A2D
:100300006A762EC9C281852C7292A1E8BFA24B6683
:100310001AA8708B4BC2A3516CC719E892D124065E
:1003200099D685350EF470A06A1016C1A419086C10
:10033000371E4C774827B5BCB034B30C1C394AAAD9
:10034000D84E4FCA9C5BF36F2E68EE828F746F633A
:10035000A5781478C8840802C78CFAFFBE90EB6CAD
:1003600050A4F7A3F9BEF27871C6000000000000A7
:10037000000000000000000000000000000000007D
:10038000000000000000000000000000000000006D
:1003900011241FBECFEFCDBFDFE3DEBF00E00CBFF7
:1003A00018BE19BE1ABE1BBE11E2A0E0B0E2ECE519
:1003B000F6E500E00BBF02C007900D92A63DB10725
:1003C000D9F71BBE22E2A6EDB1E201C01D92A93D04
:1003D000B207E1F70E9484090C942C2B0C940000C6
:1003E000CF93DF93CDB7DEB70E94C215DF91CF91D7
:1003F0000895CF93DF9300D0CDB7DEB70E94C2152A
:100400000E946D0480E090E00E94F92A8B8319829B
:100410001A820E946D048B818F3F09F475C180910F
:100420000F20909110206FE170E20E944B18809194
:100430000F20909110202A812F9329812F932FE54F
:1004400030E2232F2F932FE530E22F93292F2F9384
:100450008F930E9470180F900F900F900F900F9035
:100460000F900E94040589819A810A9689839A8354
:1004700080910F20909110202A812F9329812F9312
:100480002FE530E2232F2F932FE530E22F93292FF2
:100490002F938F930E9470180F900F900F900F90D2
:1004A0000F900F900E94040589819A810A96898392
:1004B0009A8380910F20909110202A812F93298177
:1004C0002F932FE530E2232F2F932FE530E22F9348
:1004D000292F2F938F930E9470180F900F900F90D9
:1004E0000F900F900F900E94040589819A810A96BF
:1004F00089839A8380910F20909110202A812F93D5
:1005000029812F932FE530E2232F2F932FE530E21F
:100510002F93292F2F938F930E9470180F900F9075
:100520000F900F900F900F900E94040589819A817F
:100530000A9689839A8380910F20909110202A81B6
:100540002F9329812F932FE530E2232F2F932FE52F
:1005500030E22F93292F2F938F930E9470180F90C2
:100560000F900F900F900F900F900E9404058981BB
:100570009A810A9689839A8380910F209091102006
:100580002A812F9329812F932FE530E2232F2F9358
:100590002FE530E22F93292F2F938F930E9470180D
:1005A0000F900F900F900F900F900F900E940405E6
:1005B00089819A810A9689839A8380910F209091EC
:1005C00010202A812F9329812F932FE530E2232FAA
:1005D0002F932FE530E22F93292F2F938F930E9493
:1005E00070180F900F900F900F900F900F900E9427
:1005F000040589819A810A9689839A8380910F20C4
:10060000909110202A812F9329812F932FE530E29A
:10061000232F2F932FE530E22F93292F2F938F93A2
:100620000E9470180F900F900F900F900F900F90E6
:100630000E94040589819A810A9689839A83809110
:100640000F20909110202A812F9329812F932FE53D
:1006500030E2232F2F932FE530E22F93292F2F9372
:100660008F930E9470180F900F900F900F900F9023
:100670000F900E94040589819A810A9689839A8342
:1006800080910F20909110202A812F9329812F9300
:100690002FE530E2232F2F932FE530E22F93292FE0
:1006A0002F938F930E9470180F900F900F900F90C0
:1006B0000F900F900E94040589819A810A96898380
:1006C0009A8380910F20909110202A812F93298165
:1006D0002F9325E630E2232F2F9325E630E22F9348
:1006E000292F2F938F930E9470180F900F900F90C7
:1006F0000F900F900F900E94BE0389819A818436DB
:10070000910511F00E94B6030E946D048B818F3F0A
:1007100079F00E94BE0389819A818436910519F08F
:100720000E94B60305C06FEF80E090E00E94092BA5
:1007300080E090E00E94F92A8B830E946D048B81F7
:100740008F3F11F00E94B6032396CDBFDEBFDF912D
:10075000CF910895CF93DF93CDB7DEB760E080E00F
:1007600090E00E94092BDF91CF910895CF93DF9302
:10077000CDB7DEB70E94AA030E94C827CF93DF93AC
:10078000CDB7DEB72A97CDBFDEBF81E090E00E94F3
:10079000F0128370992789839A8389819A818130A5
:1007A000910509F493C08130910538F082309105AC
:1007B000C9F0039709F46DC083C081E090E00E9406
:1007C000F01281709927892B31F0809100208D5F84
:1007D000809300207CC09091002082E08927809344
:1007E000002075C08091012090910220A0910320EB
:1007F000B091042081709927AA27BB27892B8A2BC7
:100800008B2B49F18091012090910220A09103202F
:10081000B091042027E030E040E050E0BC01CD0181
:100820000E94EB24DC01CB019C01AD0180910120F1
:1008300090910220A0910320B0910420820F931F79
:10084000A41FB51F8093012090930220A093032042
:10085000B093042035C08091012090910220A09196
:100860000320B091042023E030E040E050E0BC01E0
:10087000CD010E94EB24DA01C9010196A11DB11D31
:100880008093012090930220A0930320B093042032
:1008900017C08091D6218A3090F481E090E00E94C8
:1008A000F01283709927892B51F48091D6218F5FA4
:1008B0008093D6210E94BE031092D62100C0000072
:1008C000809100208F5F8093002001C000002A9655
:1008D000CDBFDEBFDF91CF910895CF93DF93CDB72A
:1008E000DEB72A97CDBFDEBF0E94C2150E94591302
:1008F00089839A831B821C8209C00E9459138D83AD
:100900009E838B819C8101968B839C838B819C81B0
:100910008F3F910591F388F30E9459138D839E8335
:1009200029813A818D819E812817390751F50E94CE
:10093000591389839A831B821C8209C00E94591310
:100940008D839E838B819C8101968B839C838B817D
:100950009C818115944090F30E9459138D839E834E
:1009600029813A818D819E812817390751F4809120
:100970000F20909110206CE670E20E944B180E94AC
:10098000C82789819A818130924048F089819A8173
:10099000880F892F881F990B919589839A831F82CD
:1009A000188689819A8189879A870EC00E94BE0322
:1009B0008F81988501968F8398870E94BE038985D1
:1009C0009A85019789879A872F81388589819A81AD
:1009D0002817390720F489859A85892B39F72F81C3
:1009E000388589819A812817390721F489859A8564
:1009F000892B11F00E94B6030E94BE032A96CDBF38
:100A0000DEBFDF91CF910895CF93DF93CDB7DEB7EF
:100A10002A97CDBFDEBF86E9898380E88A8382E09A
:100A20008B830E946D040E945913982F8A81892B11
:100A30008C830E946D040E946D041A8684EB898762
:100A40000E94BE031E8257C00E946D040E9459136B
:100A500080688D830E94BE031F8217C00E94BE0360
:100A600018860CC00E94BE038E81833010F00E9455
:100A7000B6030E94BE0388858F5F888798858D8125
:100A8000981780F38F818F5F8F839F818C81981758
:100A900028F30E946D048E81813099F40E94BE0378
:100AA0008F81882364F40E946D0498858A81981749
:100AB00018F08BE4898705C00E94B60302C00E942B
:100AC000B6030E946D0498858D81981769F40E9481
:100AD0006D049F818C81981721F48A858F5F8A87A6
:100AE00005C00E94B60302C00E94B6030E946D04B6
:100AF0008E818F5F8E839E818B81981708F4A4CF9F
:100B00000E94BE0389858B3431F50E946D048E816D
:100B10008230F1F40E94BE039F818A819817A8F069
:100B20000E946D040E94BE0388858E3758F00E9493
:100B30006D048A85823018F089E689830EC00E9490
:100B4000B6030BC00E94B60308C00E94B60305C0DE
:100B50000E94B60302C00E94B60389812A96CDBFC7
:100B6000DEBFDF91CF910895CF93DF93CDB7DEB78E
:100B700080E590E020E530E0F90120812260FC0171
:100B80002083000081E590E0FC018081882F90E0C7
:100B900082709927892BB1F388ED84BF81E080931F
:100BA000400080E590E020E530E0F90120812E7FD3
:100BB000FC012083DF91CF9108950F931F93CF9372
:100BC000DF93CDB7DEB7A197CDBFDEBF84E690E05F
:100BD00080938F229093902280918F2290919022E7
:100BE0009C0142E2429FC001439F900D11240E944C
:100BF000702580939322909394220E946D04198211
:100C000016C020919322309194228981482F880F19
:100C1000550B62E2649FC001659F900D1124820F05
:100C2000931FFC0110A211A289818F5F89838981A2
:100C3000282F880F330B80918F22909190222817B4
:100C40003907FCF20E946D0483E690E080939122C4
:100C50009093922280E2E5E9F0E2DE0112960190A3
:100C60000D928A95E1F72091932230919422809100
:100C7000912290919222AC0162E2649FC001659F33
:100C8000900D1124820F931F9C0180E2FE01329689
:100C9000D90101900D928A95E1F72091932230912C
:100CA00094228091912290919222AC0162E2649F01
:100CB000C001659F900D11248901080F191F89E05B
:100CC00090E00E947025F80180A391A320919322C7
:100CD000309194228091912290919222AC0162E213
:100CE000649FC001659F900D1124820F931FFC012A
:100CF00080A191A129E0ECE8F0E2DC0101900D92E5
:100D00002A95E1F7A196CDBFDEBFDF91CF911F916C
:100D10000F910895EF92FF920F931F93CF93DF935C
:100D2000CDB7DEB7CC54D109CDBFDEBF9E01255B68
:100D30003F4FD9018D939C930DB71EB7CE01855BB4
:100D40009F4FFC01808191816AE370E00E940E2830
:100D50008A839B83CE01865B9F4FDC011C928A8134
:100D60009B81892B09F4C2C2CE01865B9F4FFC0197
:100D7000908181E0292F2827CE01865B9F4FDC01DF
:100D80002C938A819B8101966AE370E00E940E2871
:100D90008C839D838C819D81892B09F4A7C28DB79B
:100DA0009EB77C01CE01865B9F4FFC01908182E063
:100DB000292F2827CE01865B9F4FDC012C93CE0183
:100DC000855B9F4FFC01808191816DE270E00E9404
:100DD0000E288E839F838E819F81892B49F02E81DF
:100DE0003F818C819D812817390710F48FEF7BC2DA
:100DF000CE01865B9F4FDC019C9184E0292F282740
:100E0000CE01865B9F4FFC0120832A813B81CE016E
:100E1000855B9F4FDC018D919C91F901E81BF90BDB
:100E2000CF01092E000CAA0BBB0B88879987AA87D4
:100E3000BB8788859985AA85BB850196A11DB11DB3
:100E40009C01215031092C873D872DB73EB7281BC7
:100E5000390B2DBF3EBF8DB79EB701968E879F87FA
:100E6000CE01865B9F4FDC019C9188E0292F2827CB
:100E7000CE01865B9F4FFC0120832C813D818A81BE
:100E80009B81A901481B590BCA010197092E000C2F
:100E9000AA0BBB0B888B998BAA8BBB8B88899989F2
:100EA000AA89BB890196A11DB11D9C012150310960
:100EB0002C8B3D8BADB7BEB7A81BB90BADBFBEBF6A
:100EC0008DB79EB701968E8B9F8B488559852E8551
:100ED0003F85CE01855B9F4FFC0180819181BC01E4
:100EE000C9010E94EC272E853F8588859985820F50
:100EF000931FDC011C928E859F859E01285D3F4FCC
:100F00004AE050E0B9010E949D26DC01CB01888FA8
:100F1000998FAA8FBB8FCE01865B9F4FFC0190817A
:100F200080E1292F2827CE01865B9F4FDC012C937F
:100F3000488959898A819B819C012F5F3F4F8E8907
:100F40009F89B9010E94EC272E893F898889998958
:100F5000820F931FFC0110828E899F899E01285D5C
:100F60003F4F4AE050E0B9010E949D26DC01CB01D1
:100F70008C8F9D8FAE8FBF8FCE01865B9F4FDC0124
:100F80008C918F3111F00E94B6030E946D04CE0146
:100F9000865B9F4FFC01908180E2292F2827CE019C
:100FA000865B9F4FDC012C938C8D9D8DAE8DBF8D0C
:100FB0009C012150310928A339A3EDB7FEB7E81BE6
:100FC000F90BEDBFFEBF8DB79EB701968AA39BA319
:100FD000888D998DAA8DBB8D9C01215031092CA340
:100FE0003DA32DB73EB7281B390B2DBF3EBF8DB794
:100FF0009EB701968EA39FA3488D598D288539856C
:1010000088899989820F931F02969E01255B3F4F25
:10101000D9012D913C91280F391F8EA19FA1B901B3
:101020000E94EC27CE01865B9F4FFC0180818F33AD
:1010300011F00E94B6030E946D0480918F2290915E
:10104000902289834BC1CE01865B9F4FDC011C92AD
:101050000E946D0420919322309194228981482F1F
:10106000880F550B62E2649FC001659F900D1124AB
:10107000820F931FFC0180A191A1892B09F42BC140
:1010800020919322309194228981482F880F550B0B
:1010900062E2649FC001659F900D1124820F931F2F
:1010A000DC0190968D919C9191970E9419289C014A
:1010B00040E050E0888D998DAA8DBB8D28173907A7
:1010C0004A075B0709F007C1E88DF98D6EA17FA182
:1010D00020919322309194228981482F880F550BBB
:1010E000A2E2A49FC001A59F900D1124820F931F1F
:1010F000DC0190968D919C919197AF010E94DF2722
:10110000892B09F0E8C00E946D04CE01865B9F4FD9
:10111000FC018081882311F00E94B6030E946D04B7
:10112000CE01865B9F4FDC018C9121E0280FCE0120
:10113000865B9F4FFC0120834C8D5D8D2885398512
:1011400088899989280F391F888D998D820F931F5F
:1011500002969E01255B3F4FD9012D913C91280FAE
:10116000391F8AA19BA1B9010E94EC27CE01865BA1
:101170009F4FFC01808121E0280FCE01865B9F4FAD
:10118000DC012C938C8D9D8DAE8DBF8D880F991FAA
:10119000AA1FBB1F880F991FAA1FBB1F880F991F6B
:1011A000AA1FBB1F9C01AD016AA17BA1CE018A963B
:1011B0000E94C310CE01865B9F4FFC01808121E01D
:1011C000280FCE01865B9F4FDC012C930E946D049B
:1011D000CE01865B9F4FFC018081833019F5209101
:1011E0009322309194228981482F880F550B62E217
:1011F000649FC001659F900D1124820F931F9C0175
:10120000CE018A9640E250E0BC01C9010E94DF276E
:10121000892B41F482E180930520809105208A5634
:10122000809305200E946D04CE01865B9F4FDC01F8
:101230008C9121E0280FCE01865B9F4FFC0120831B
:101240000E946D04CE01865B9F4FDC018C9184303F
:10125000D9F420919322309194228981482F880FCC
:10126000550B62E2649FC001659F900D1124820FAF
:10127000931F9C01CE018A9640E250E0BC01C90157
:101280000E94DF27892B11F082E02DC0CE01865B02
:101290009F4FFC01808121E0280FCE01865B9F4F8C
:1012A000DC012C930E946D04CE01865B9F4FFC01F4
:1012B0008081853019F00E94B6030DC08091052011
:1012C0008251809305208AE398E18093D7219093FF
:1012D000D82181E008C08981815089838981882350
:1012E0000CF0B1CE80E0EDBEFEBE01C08FEF0DBFB1
:1012F0001EBFC45BDF4FCDBFDEBFDF91CF911F911B
:101300000F91FF90EF900895CF93DF93CDB7DEB7A5
:10131000C75ED109CDBFDEBF0E94B40580910F200A
:10132000909110200E947D170E9403190E947D2237
:1013300080E096E023E0FC0120832EE0CE010196C0
:10134000FC01322F11923A95E9F782E08C838EE00E
:1013500098E189879A872EE0CE010F96FC01322F03
:1013600011923A95E9F781E08A8B80E998E1898FBB
:101370009A8F80E896E021E0FC01208380E09AE0EB
:1013800021E0FC01208380E09AE021E1FC0121833F
:1013900080E09AE0FC0110A611A61D8E80910F201E
:1013A0009091102065EB70E20E944B180E94F001B2
:1013B0000E94040580910F209091102067EC70E24C
:1013C0000E944B180E94DD051E8E1D8E9D8D81E0B2
:1013D00089278D8F80910F2090911020BE01615E32
:1013E0007F4F2AE048EC50E00E94BB180E946D0439
:1013F0009D8D82E089278D8FCE014F960E948A06AF
:10140000282FCE0189519F4FFC0120830E946D043B
:101410009D8D84E089278D8FCE0189519F4FFC01DE
:101420008081813001F50E946D048091052086390C
:1014300011F00E94C8278FEF8E8F0E946D048D8D52
:10144000873019F00E94B6030EC08E8D0E946D2465
:101450009D8D88E089278D8F0E946D048D8D8F3042
:1014600011F00E94B6030E946D049D8D80E18927D2
:101470008D8FCE0189519F4FFC0180818F3F49F4B0
:1014800080910F20909110206CED70E20E944B181B
:1014900060C00E946D04CE0189519F4FFC01808184
:1014A000882349F480910F209091102060E271E22E
:1014B0000E944B184EC0CE0189519F4FFC01808184
:1014C000823049F480910F209091102060E371E206
:1014D0000E944B183EC0CE0189519F4FFC01808174
:1014E0008130B9F59D8D80E289278D8F809105200F
:1014F000863969F580910F209091102062E471E2A5
:101500000E944B180E946D048D8D8F3319F00E943C
:10151000B6031FC00E946D048D8D8F3319F00E9499
:10152000B60317C00E946D04CE0189519F4FFC0184
:101530008081813019F00E94B6030BC08091D721C1
:101540009091D8210E947A2480E090E003C00E940C
:10155000C8273BCFC951DF4FCDBFDEBFDF91CF9151
:101560000895CF93DF931F921F92CDB7DEB7898383
:101570009A8389819A81FC0110A211A212A213A25E
:1015800089819A8140E250E06AE472E00E94D627A5
:101590000F900F90DF91CF910895CF93DF93CDB748
:1015A000DEB72597CDBFDEBF69837A838B839C83AB
:1015B0004D838D81682F70E089819A81AB81BC81D8
:1015C0009C01AD01062E04C0569547953795279589
:1015D0000A94D2F77195619571096F71772704C0EC
:1015E000880F991FAA1FBB1F6A95D2F7822B932BD6
:1015F000A42BB52BBC01CD012596CDBFDEBFDF915D
:10160000CF910895CF93DF9300D01F92CDB7DEB76F
:1016100069837A838B839C8389819A81AB81BC8126
:10162000582F44273327222789819A81AB81BC8197
:101630008B2F9927AA27BB27282B392B4A2B5B2BCB
:1016400089819A81AB81BC818827AA27BB27BA2FC1
:10165000A92F982F8827282B392B4A2B5B2B898180
:101660009A81AB81BC8188279927BB27892F9A2F24
:10167000AB2FBB27822B932BA42BB52BBC01CD0109
:101680002496CDBFDEBFDF91CF9108958F929F92B8
:10169000AF92BF92CF92DF92EF92FF920F931F9380
:1016A000CF93DF93CDB7DEB7C357D109CDBFDEBF30
:1016B0009E0120593F4FF90180839183CE018E58BE
:1016C0009F4FFC01608371839E01205B3F4FCE01E1
:1016D00080599F4FFC018081918140E2FC01D9013A
:1016E00001900D924A95E1F7198231C08981082F46
:1016F00010E08981882F90E0880F991F880F991F2B
:101700009E012E583F4FF90120813181820F931F96
:10171000FC0180819181A281B381BC01CD010E9435
:10172000020BDC01CB019801220F331F220F331F64
:10173000AE014F5F5F4F240F351F215F3F4FF9010F
:1017400080839183A283B38389818F5F8983898119
:10175000803160F21982B2C28981803108F439C1C6
:101760008981882F90E08C010F7011278981882F43
:1017700090E00E968F709078992324F40197806FF3
:101780009F6F0196880F991F880F991F9E012F5FE9
:101790003F4F820F931F0F96FC0180819181A281A0
:1017A000B38141E1BC01CD010E94CD0A6B017C01F6
:1017B0008981882F90E00E968F709078992324F479
:1017C0000197806F9F6F0196880F991F880F991F4F
:1017D0009E012F5F3F4F820F931F0F96FC01808168
:1017E0009181A281B38143E1BC01CD010E94CD0A68
:1017F000DC01CB01A7019601282739274A275B275F
:101800008981882F90E00E968F709078992324F428
:101810000197806F9F6F0196880F991F880F991FFE
:10182000BE016F5F7F4F860F971F0F96FC0180816F
:101830009181A281B381072E7AE0B695A7959795FD
:1018400087957A95D1F7702D282739274A275B2766
:101850008981882F90E009968F709078992324F4DD
:101860000197806F9F6F0196880F991F880F991FAE
:10187000BE016F5F7F4F860F971F0F96FC0180811F
:101880009181A281B38169017A01C80ED91EEA1E35
:10189000FB1E8981882F90E001968F7090789923A4
:1018A00024F40197806F9F6F0196880F991F880F0E
:1018B000991F9E012F5F3F4F820F931F0F96FC01D0
:1018C00080819181A281B38147E0BC01CD010E945A
:1018D000CD0A4B015C018981882F90E001968F70C1
:1018E0009078992324F40197806F9F6F0196880F59
:1018F000991F880F991F9E012F5F3F4F820F931FE3
:101900000F96FC0180819181A281B38142E1BC01EB
:10191000CD010E94CD0ADC01CB01A501940128274D
:1019200039274A275B278981882F90E001968F709D
:101930009078992324F40197806F9F6F0196880F08
:10194000991F880F991FBE016F5F7F4F860F971FEA
:101950000F96FC0180819181A281B381689412F875
:10196000B695A795979587951694D1F782279327D3
:10197000A427B527A7019601280F391F4A1F5B1F0F
:101980008981882F90E08F709927880F991F880F81
:10199000991FBE016F5F7F4F860F971F0F96FC0147
:1019A00080819181A281B381820F931FA41FB51FF3
:1019B0009801220F331F220F331FAE014F5F5F4F7D
:1019C000240F351F215F3F4FF90180839183A2834C
:1019D000B383CE01805B9F4FFC01C48CD58CE68C19
:1019E000F78CCE01805B9F4FFC0180899189A28991
:1019F000B38946E0BC01CD010E94CD0A4B015C01D8
:101A0000CE01805B9F4FFC0180899189A289B389B7
:101A10004BE0BC01CD010E94CD0ADC01CB01882640
:101A20009926AA26BB26CE01805B9F4FFC018089A8
:101A30009189A289B38949E1BC01CD010E94CD0AF7
:101A4000DC01CB0188259925AA25BB25A701960194
:101A5000280F391F4A1F5B1FCE01805B9F4FFC017F
:101A6000E088F18802891389CE01805B9F4FFC01D9
:101A700084899589A689B789E822F9220A231B233C
:101A8000CE01805B9F4FFC0180899189A289B38937
:101A90005C016D01A094B094C094D094CE01805BA1
:101AA0009F4FFC01808D918DA28DB38D8A219B214A
:101AB000AC21BD218E259F25A027B127280F391FD6
:101AC0004A1F5B1F8981882F90E0880F991F880F1C
:101AD000991F86599D4F8A839B838A819B81BC0174
:101AE000FB0185919591A591B491BF018C839D8354
:101AF000AE83BF836A837B838C819D81AE81BF81EE
:101B0000280F391F4A1F5B1F8981882F90E08F7033
:101B10009927880F991F880F991FBE016F5F7F4F0C
:101B2000860F971F0F96FC0180819181A281B3815E
:101B3000820F931FA41FB51F88879987AA87BB8729
:101B4000CE01805B9F4FFC0180819181A281B38196
:101B500042E0BC01CD010E94CD0A6B017C01CE01A7
:101B6000805B9F4FFC0180819181A281B3814DE018
:101B7000BC01CD010E94CD0ADC01CB01C826D926CB
:101B8000EA26FB26CE01805B9F4FFC01808191817C
:101B9000A281B38146E1BC01CD010E94CD0ADC01E6
:101BA000CB01A7019601282739274A275B27CE01B9
:101BB000805B9F4FFC01E080F18002811381CE01A8
:101BC000805B9F4FFC0184819581A681B781E822CB
:101BD000F9220A231B23CE01805B9F4FFC01A080CA
:101BE000B180C280D380CE01805B9F4FFC01808595
:101BF0009185A285B3858A219B21AC21BD21E82650
:101C0000F9260A271B27CE01805B9F4FFC01A48089
:101C1000B580C680D780CE01805B9F4FFC01808558
:101C20009185A285B3858A219B21AC21BD218E257A
:101C30009F25A027B127820F931FA41FB51F8C8754
:101C40009D87AE87BF879E01205B3F4FCE01805BA3
:101C50009F4F04964CE150E0B9010E94F527CE0158
:101C6000805B9F4FFC012089318942895389888597
:101C70009985AA85BB85820F931FA41FB51F9E015E
:101C8000205B3F4FF901808B918BA28BB38B288512
:101C900039854A855B858C859D85AE85BF85820F9C
:101CA000931FA41FB51F9E01205B3F4FF901808346
:101CB0009183A283B38389818F5F898389818034F3
:101CC00008F44ACD198241C08981682F70E089816A
:101CD000882F90E09E0120593F4FF90120813181EA
:101CE000880F991F880F991F820F931FFC01208175
:101CF0003181428153818981882F90E0FE01E05B30
:101D0000FF4F880F991F880F991F8E0F9F1FFC018F
:101D100080819181A281B381820F931FA41FB51F7F
:101D20009E0120593F4FF901408151819B01220FB3
:101D3000331F220F331F240F351FF9018083918336
:101D4000A283B38389818F5F89838981883008F476
:101D5000BBCFCE0180599F4FFC0180819181FC0156
:101D600080A191A1A2A1B3A10196A11DB11D9E01C7
:101D700020593F4FF90120813181F90180A391A3BE
:101D8000A2A3B3A3CD58DF4FCDBFDEBFDF91CF916C
:101D90001F910F91FF90EF90DF90CF90BF90AF9089
:101DA0009F908F900895AF92BF92CF92DF92EF9263
:101DB000FF920F931F93CF93DF93CDB7DEB7CF542E
:101DC000D109CDBFDEBF9E01265B3F4FF901808365
:101DD0009183CE01845B9F4FFC0160837183CE01B0
:101DE000825B9F4FFC01408351832AC0CE01845BFC
:101DF0009F4FFC0120813181CE01865B9F4FFC010A
:101E000080819181B9010E94460BCE01825B9F4F78
:101E10009E01225B3F4FF901208131813250FC014C
:101E200020833183CE01845B9F4F9E01245B3F4F13
:101E3000F90120813181205C3F4FFC0120833183F7
:101E4000CE01825B9F4FFC01808191818115924080
:101E500068F6CE01865B9F4FFC0180819181FC0179
:101E600080A191A1A2A1B3A19C01AD0160E070E0AD
:101E7000CB0129833A834B835C836D837E838F837D
:101E8000988729813A814B815C816D817E818F8128
:101E9000988509E00E943025A22EB32EC42ED52E9F
:101EA000E62EF72E082F192FA982BA82CB82DC8268
:101EB000ED82FE820F831887CE01825B9F4FFC016B
:101EC000808191815C01C12CD12CE12CF12C870106
:101ED0002A2D3B2D4C2D5D2D6E2D7F2D802F912F8A
:101EE000A980BA80CB80DC80ED80FE800F811885D0
:101EF0000E946725A22EB32EC42ED52EE62EF72ED5
:101F0000082F192FA982BA82CB82DC82ED82FE8251
:101F10000F831887CE01825B9F4FFC0180819181E6
:101F2000AC01569547955695479556954795CE01E0
:101F3000845B9F4FFC0120813181CE010A96B9015B
:101F40000E94EC27CE01825B9F4FFC018081918132
:101F500087709927892B51F1CE01825B9F4FFC013D
:101F60008081918196958795969587959695879589
:101F70009E01225B3F4FF9012081318136952795E3
:101F80003695279536952795AE01445B5F4FFA014C
:101F900040815181240F351FF90140819E01265F48
:101FA0003F4F820F931FFC01408313C0CE01825B21
:101FB0009F4FFC0180819181969587959695879595
:101FC000969587959E01265F3F4F820F931FFC01D8
:101FD0001082CE01825B9F4FFC018081918196959A
:101FE000879596958795969587959E01265F3F4F95
:101FF000280F391FF9012081622F9E01225B3F4F7C
:10200000F90120813181A9014770552720E830E08E
:1020100002C0359527954A95E2F7262B422F9E015F
:10202000265F3F4F820F931FFC014083CE01825BEE
:102030009F4FFC01808191819C01369527953695B3
:10204000279536952795CE01825B9F4F2F5F3F4F97
:10205000FC0120833183CE01825B9F4FFC01808194
:102060009181C99760F1CE01825B9F4F20E430E0FF
:10207000FC0180819181A901481B590B9E01265FBB
:102080003F4FCE01825B9F4FFC0180819181820F87
:10209000931F60E070E00E9407289E01265F3F4F7B
:1020A000CE01865B9F4FFC0180819181B9010E9426
:1020B000460BCE01825B9F4FFC0110821182CE0144
:1020C000825B9F4F28E330E0FC0180819181A90170
:1020D000481B590B9E01265F3F4FCE01825B9F4FED
:1020E000FC0180819181820F931F60E070E00E946B
:1020F000072887E089878985882F90E0C8964981DD
:102100009E01265F3F4F820F931FFC014083298170
:102110003A814B815C816D817E818F81988508E059
:102120000E944B25A22EB32EC42ED52EE62EF72EBE
:10213000082F192FA982BA82CB82DC82ED82FE821F
:102140000F83188789859FEF980F9987882399F6C1
:102150009E01265F3F4FCE01865B9F4FFC01808131
:102160009181B9010E94460BC15BDF4FCDBFDEBF3D
:10217000DF91CF911F910F91FF90EF90DF90CF9063
:10218000BF90AF900895CF93DF93CDB7DEB7AC97F4
:10219000CDBFDEBF8DA39EA36FA378A729A73AA7C3
:1021A0004BA75CA7CE0101960E94B10A18C08FA16F
:1021B00098A5BC01CE0101960E94460B8FA198A55F
:1021C000805C9F4F8FA398A789A59AA5ABA5BCA5B6
:1021D0009250A109B10989A79AA7ABA7BCA789A565
:1021E0009AA5ABA5BCA581159240A105B105F8F64D
:1021F00029A53AA58FA198A5A901BC01CE010196F8
:102200000E94D30E8DA19EA19E012F5F3F4FB90169
:102210000E941011AC96CDBFDEBFDF91CF91089523
:102220000F931F93CF93DF93CDB7DEB72597CDBF25
:10223000DEBF8A839B836C837D8319822AC0898158
:10224000882F90E0880F991F880F991F2A813B8162
:102250008901080F191F8981882F90E02C813D8109
:10226000880F991F880F991F820F931FFC0180818F
:102270009181A281B381BC01CD010E94020BDC01DE
:10228000CB01F80180839183A283B38389818F5F1F
:1022900089838981883098F22596CDBFDEBFDF9192
:1022A000CF911F910F910895CF93DF93CDB7DEB7F4
:1022B0000E94C61DDC01CB01BC01CD01DF91CF9195
:1022C00008950F931F93CF93DF9300D0CDB7DEB760
:1022D00080E09FE00E94F92A882F90E0182F0027C5
:1022E0008FE09FE00E94F92A882F90E080279127B5
:1022F00089839A8380EE9FE00E94F92A882F90E0DC
:1023000029813A818227932789839A838FEF9FE0DF
:102310000E94F92A8B838B81882F90E09C01322FB9
:1023200022273295307F8B8182958F70882F90E0A5
:10233000822793279C0189819A8182279327898309
:102340009A8389819A812396CDBFDEBFDF91CF9199
:102350001F910F910895CF93DF9300D01F92CDB7B7
:10236000DEB789836A834B832C83698180E09FE099
:102370000E94092B6A818FE09FE00E94092B6B81EC
:1023800080EE9FE00E94092B6C818FEF9FE00E94FE
:10239000092B2496CDBFDEBFDF91CF910895CF9357
:1023A000DF93CDB7DEB72797CDBFDEBF8091D921B0
:1023B0009091DA21A091DB21B091DC210196A11D41
:1023C000B11D8093D9219093DA21A093DB21B093A2
:1023D000DC2119821A821D8235C00E945411DC0151
:1023E000CB01817099278B839C838D81282F880F47
:1023F000330B8B819C8102C0880F991F2A95E2F7CD
:1024000029813A81822B932B89839A838B819C81AA
:102410009C0140E050E08091DD219091DE21A0916F
:10242000DF21B091E021820F931FA41FB51F80937D
:10243000DD219093DE21A093DF21B093E0218D81F7
:102440008F5F8D838D81803144F28D81803111F0D9
:102450000E94C8278091D9219091DA21A091DB2197
:10246000B091DC210B97A105B10508F452C0809111
:10247000D9219091DA21A091DB21B091DC219C013E
:10248000AD01220F331F441F551F220F331F441F5E
:10249000551F8091DD219091DE21A091DF21B09127
:1024A000E02182179307A407B50748F12091D921AD
:1024B0003091DA214091DB215091DC21DA01C90110
:1024C000880F991FAA1FBB1F820F931FA41FB51F40
:1024D000880F991FAA1FBB1F880F991FAA1FBB1F18
:1024E0009C01AD018091DD219091DE21A091DF2141
:1024F000B091E021281739074A075B0750F4809113
:102500000F209091102064E571E20E944B180E9408
:10251000C8278091D9219091DA21A091DB21B09137
:10252000DC2185369105A105B10580F01092D921F5
:102530001092DA211092DB211092DC211092DD2121
:102540001092DE211092DF211092E0218091E12192
:10255000882F90E02091E121222F30E0220F331FBD
:102560002B563D4DF9014081518129813A81242723
:102570003527880F991F8B569D4DFC012083318391
:102580008091E121882F90E0019621E130E0B901AE
:102590000E94D7248093E1218091E121882F90E04F
:1025A000880F991F8B569D4DFC0180819181279644
:1025B000CDBFDEBFDF91CF910895CF93DF931F9200
:1025C0001F92CDB7DEB789839A8389819A818093E0
:1025D0000720909308200F900F90DF91CF910895DE
:1025E000CF93DF9300D000D0CDB7DEB78D839E832D
:1025F00019821A828091072090910820892B11F46A
:102600000E94C82780910720909108209C01369550
:1026100027953695279580910720909108202827A7
:102620003927809107209091082096958795969557
:10263000879596958795282739278091072090912F
:10264000082096958795929582958F7089279F701F
:10265000892782279327817099278B839C83809178
:102660000720909108209C01369527958B819C81AD
:102670009927869597958827822B932B80930720FF
:102680009093082089819A81019689839A83298170
:102690003A818D819E812817390708F4B3CF809144
:1026A0000720909108202696CDBFDEBFDF91CF9105
:1026B00008950F931F93CF93DF93CDB7DEB70E949A
:1026C000CF118C0181E090E00E94F01280279127C9
:1026D000DF91CF911F910F910895CF93DF9300D099
:1026E00000D0CDB7DEB78D839E838D819E818B8395
:1026F0009C8319821A8236C081E090E00E94F01219
:10270000FC0149815A819A01A1EFB0EF0E94162580
:10271000929582958F7089279F70892761E1689FC4
:102720009001699F300D1124CA01821B930B9C01FB
:10273000220F331F2B563D4DD9012D913C912E2751
:102740003F27880F991F8B569D4DFC0120833183B5
:102750008B819C8101978B839C8389819A810196CF
:1027600089839A8329813A818D819E81281739072F
:1027700028F48B819C81892B09F0BECF8B819C81B1
:10278000892B39F429813A818D819E812817390757
:1027900011F00E94C82707C00E94CF118D819E8131
:1027A00001978D839E838D819E81892BA9F78D81D1
:1027B0009E81892B11F00E94C8272696CDBFDEBFCF
:1027C000DF91CF910895FF920F931F93CF93DF93E3
:1027D000CDB7DEB76C97CDBFDEBF809106208837BE
:1027E00041F480910620883711F00E94C8278AE5BD
:1027F000C0C185EA8B839091E22182E08927809392
:10280000E2218AE290E00E94DD129091E22184E0D0
:1028100089278093E22181E190E00E946D139091DD
:10282000E22188E089278093E2219091E22180E1F2
:1028300089278093E221CE0141960E945B199091F5
:10284000E22180E289278093E2210E94611189833D
:102850009A839091E22181E089278093E221CE0141
:1028600041968C839D838C819D81FC0120813181E7
:102870008C819D810296FC01408151818C819D81DA
:102880000496FC0180819181482759278C819D8184
:102890000696FC0180819181482759278C819D8172
:1028A0000896FC0180819181482759278C819D8160
:1028B0000A96FC0180819181482759278C819D814E
:1028C0000C96FC018081918184279527822793278C
:1028D0009C01F7EB2F27FAE73F278C819D81FC01B4
:1028E000208331839091E22180E489278093E22143
:1028F0001C8E12C189819A818F7199270E946D1354
:102900000E94CF118E839F838C819D81FC01208149
:1029100031818E819F81282739278C819D81FC01FF
:10292000208331830E94CF118C018C819D81FC0119
:10293000408151819A01AFE2BAEB0E94162596952B
:10294000879596958795969587956BE0689F9001FA
:10295000699F300D1124CA01821B930B0E94F01253
:102960008027912788879987488559859A01A1EF03
:10297000B0EF0E941625929582958F7089279F70DF
:10298000892761E1689F9001699F300D1124CA0178
:10299000821B930B880F991F8B569D4DFC018081E4
:1029A00091818A879B870E94CF118C014A855B8524
:1029B0009A01A3E9B4E20E9416259A01281B390B5B
:1029C00036952795820F931F9C013695279536954E
:1029D0002795C901880F991F880F991F880F991F84
:1029E000821B930B9A01281B390BC9010E94F0121C
:1029F000802791278C879D874C855D859A01A1EF63
:102A0000B0EF0E941625929582958F7089279F704E
:102A1000892761E1689F9001699F300D1124CA01E7
:102A2000821B930B8093E1210E94CF118C010E94A5
:102A3000CF11AC019A01A5ECBEE40E941625969533
:102A40008795969587956DE0689F9001699F300DF9
:102A50001124CA01821B930B0E94F0128027912738
:102A60008E879F874E855F859A01AFE2BAEB0E9401
:102A700016259695879596958795969587956BE0FB
:102A8000689F9001699F300D1124CA01821B930B2E
:102A90000E946D130E94CF118C0181E090E00E9492
:102AA000F012A801482759279A01A3E9B1E20E9430
:102AB00016259695879596958795969587956DE3B6
:102AC000689F9001699F300D1124CA01821B930BEE
:102AD00029813A818227932789839A838C8D882341
:102AE000C1F00E9459139C0189819A818227932702
:102AF00089839A830E9459139C018C819D81FC01DA
:102B000080819181282739278C819D81FC01208338
:102B100031838C8D8F5F8C8F8C8D833008F4EACE5F
:102B20008C8D833010F40E94C8278091E22190910F
:102B3000E22180E889278093E2218AE5888B8091D1
:102B4000E2218F3F11F00E94C82788E7809306207A
:102B50000E945913F82E0E945913082F0E945913EE
:102B6000182F0E9459132F2D402F612F0E94AB1157
:102B70008B816C96CDBFDEBFDF91CF911F910F91FE
:102B8000FF900895FF920F931F93CF93DF93CDB7DC
:102B9000DEB7A297CDBFDEBF80910620883741F413
:102BA00080910620883711F00E94C8278AE59CC1D1
:102BB00085EA8B839091E22182E089278093E2214C
:102BC0008AE290E00E94DD129091E22184E0892760
:102BD0008093E22183E490E00E946D139091E221C2
:102BE00088E089278093E2219091E22180E1892782
:102BF0008093E221CE0141960E945B199091E221DF
:102C000080E289278093E2210E94611189839A835F
:102C10009091E22181E089278093E221CE014196C3
:102C20008C839D838C819D81FC01208131818C81ED
:102C30009D810296FC01408151818C819D81049689
:102C4000FC0180819181482759278C819D810696BE
:102C5000FC0180819181482759278C819D810896AC
:102C6000FC0180819181482759278C819D810A969A
:102C7000FC0180819181482759278C819D810C9688
:102C8000FC018081918184279527822793279C01CD
:102C9000F7EB2F27FAE73F278C819D81FC012083EA
:102CA00031839091E22180E489278093E2211C8E78
:102CB000EAC089819A8193700E946D130E94CF119E
:102CC0008E839F838C819D81FC01208131818E8147
:102CD0009F81282739278C819D81FC0120833183A6
:102CE0000E94CF118C018C819D81FC01808191819A
:102CF0002DE232E0B9010E94C3240E94F012802725
:102D0000912788879987488559859A01A1EFB0EF67
:102D10000E941625929582958F7089279F7089272A
:102D200061E1689F9001699F300D1124CA01821BE7
:102D3000930B880F991F8B569D4DFC0180819181CB
:102D40008A879B870E94CF118C018A859B8525EFFE
:102D500032E0B9010E94C3240E94F012802791271B
:102D60008C879D874C855D859A01A1EFB0EF0E940D
:102D70001625929582958F7089279F70892761E12A
:102D8000689F9001699F300D1124CA01821B930B2B
:102D90008093E1210E94CF118C010E94CF1129E57F
:102DA00033E0B9010E94C3240E94F01280279127CA
:102DB0008E879F874E855F859A01A9EDBAE80E94AC
:102DC000162596958795929582958F7089279F7085
:102DD00089276BE3689F9001699F300D1124CA0118
:102DE000821B930B0E946D130E94CF118C0181E016
:102DF00090E00E94F012A801482759279A01A3E900
:102E0000B1E20E9416259695879596958795969599
:102E100087956DE3689F9001699F300D1124CA0169
:102E2000821B930B29813A818227932789839A8376
:102E30008C8D843028F10E9459139C0189819A81DC
:102E40008227932789839A830E9459139C018C813E
:102E50009D81FC0180819181282739278C819D816A
:102E6000FC01208331830E94CF11892B19F081E06E
:102E700090E002C080E090E0982F8C8D890F8C8FBD
:102E80008C8D8F5F8C8F8C8D883008F412CF8C8D59
:102E9000863008F40CCF8C8D873010F40E94C82740
:102EA0008091E2219091E22180E889278093E221BC
:102EB0008AE5888B8091E2218F3F11F00E94C8271C
:102EC00088E7809306200E945913F82E0E94591318
:102ED000082F0E945913182F0E9459132F2D402F8D
:102EE000612F0E94AB118B81A296CDBFDEBFDF9117
:102EF000CF911F910F91FF900895CF93DF931F9271
:102F00001F92CDB7DEB789839A8389819A81FC01AC
:102F10008281938129813A81F9012581FC012583F0
:102F200089819A81FC018281938129813A81F90109
:102F30002581FC01218389819A81FC018281938111
:102F400029813A81F9012481FC01268389819A81B2
:102F5000FC018281938129813A81F9012481FC015C
:102F6000228389819A81FC018081918129813A8122
:102F7000F90120813181F9012381FC0123838981B9
:102F80009A81FC018081918129813A81F901208116
:102F90003181F9012381FC01238389819A81FC011C
:102FA0008081918129813A81F90120813181F90162
:102FB0002381FC01238389819A81FC018081918195
:102FC00024E0FC01248389819A81FC018081918124
:102FD00023E0FC01258389819A81FC018081918114
:102FE000FC01178289819A81FC018081918122E212
:102FF000FC01268389819A81FC018081918129814C
:103000003A81F90120813181F90124812861FC0193
:1030100024830F900F90DF91CF910895CF93DF938A
:1030200000D0CDB7DEB789839A836B830000898196
:103030009A81FC0180819181FC018181882F90E03F
:1030400080729927892B99F389819A81FC0180816B
:1030500091812B81FC012083000089819A81FC01F0
:1030600080819181FC0181812396CDBFDEBFDF91FC
:10307000CF910895CF93DF931F92CDB7DEB78983A9
:1030800080910F209091102069810E940E180F905E
:10309000DF91CF910895CF93DF9300D01F92CDB7EA
:1030A000DEB789839A836B837C830EC08B819C817E
:1030B000FC01208189819A81622F0E940E188B81E8
:1030C0009C8101968B839C838B819C81FC018081F8
:1030D000882361F72496CDBFDEBFDF91CF9108959D
:1030E000CF93DF931F921F92CDB7DEB7CE010C9620
:1030F00089839A8329813A818A859B85AC0168E717
:1031000070E083EE91E20E9422288885998563EE23
:1031100071E20E944B180F900F90DF91CF910895AC
:10312000CF93DF931F921F92CDB7DEB789839A8327
:10313000000089819A81FC0180819181FC0181815B
:103140008823BCF789819A81FC0180819181FC01EF
:1031500080810F900F90DF91CF910895CF93DF93EF
:10316000CDB7DEB780910F20909110200E9490186B
:10317000DF91CF910895CF93DF93CDB7DEB72A9734
:10318000CDBFDEBF8C839D836E837F834887598745
:103190002A8719821A828C819D810E9490188B83C4
:1031A0008C819D816B810E940E182E813F818981C7
:1031B0009A81820F931F2B81FC012083888599853A
:1031C0009C012150310989819A818217930728F443
:1031D00089819A81019689839A839B818A85981730
:1031E00049F42E813F8189819A81820F931FFC01CE
:1031F000108201C0D0CF89819A812A96CDBFDEBFCF
:10320000DF91CF910895CF93DF93CDB7DEB780E202
:1032100096E021E0FC01268380E296E021E0FC01BB
:103220002183DF91CF910895CF93DF93CDB7DEB7A0
:1032300080E296E021E0FC012583DF91CF910895A3
:10324000CF93DF93CDB7DEB780E296E021E0FC01BB
:103250002683DF91CF910895CF93DF93CDB7DEB76B
:1032600080E296E021E0FC012783DF91CF91089571
:10327000CF93DF9300D000D0CDB7DEB78D839E8390
:103280008AEC91E022E0FC0120838D819E8189837C
:103290009A8389819A81FC0184918B838B818C83B1
:1032A0008AEC91E0FC0110828C812696CDBFDEBFB6
:1032B000DF91CF9108950F931F93CF93DF931F92C8
:1032C0001F92CDB7DEB789839A8388E090E00E9491
:1032D0003819282F89819A81FC01208389819A815C
:1032E0008C010F5F1F4F89E090E00E943819F801B0
:1032F000808389819A818C010E5F1F4F8AE090E064
:103300000E943819F801808389819A818C010D5FB0
:103310001F4F8BE090E00E943819F801808389816B
:103320009A818C010C5F1F4F8CE090E00E9438194D
:10333000F801808389819A818C010B5F1F4F8DE09A
:1033400090E00E943819F801808389819A818C016C
:103350000A5F1F4F80E190E00E943819F8018083D6
:1033600089819A818C01095F1F4F82E190E00E9460
:103370003819F801808389819A818C01085F1F4F79
:1033800083E190E00E943819F801808389819A8155
:103390008C01075F1F4F84E190E00E943819F8010B
:1033A000808389819A818C01065F1F4F85E190E0BF
:1033B0000E943819F80180830F900F90DF91CF9110
:1033C0001F910F910895CF93DF931F92CDB7DEB772
:1033D00089838981882F90E0092E000CAA0BBB0BF2
:1033E00040E050E02AE030E0841B950B28173907B5
:1033F00008F43EC0FC018827E250FF4F8F4F0C9429
:103400000D2588E090E00E94381932C089E090E0F4
:103410000E9438192DC08AE090E00E94381928C017
:103420008BE090E00E94381923C08CE090E00E946D
:1034300038191EC08DE090E00E94381919C080E153
:1034400090E00E94381914C082E190E00E9438197F
:103450000FC083E190E00E9438190AC084E190E037
:103460000E94381905C085E190E00E94381900C01B
:103470000F90DF91CF910895CF93DF93CDB7DEB753
:103480008FE00E94C81C80E090E00E94341B80E026
:103490000E94881B80E00E94A81B80E090E00E94B0
:1034A000C81B80E190E00E94E81B81E00E94081C9C
:1034B00081E00E94281C80E090E00E94481C80E08F
:1034C00090E00E94681C80E090E00E94881C84E0EC
:1034D00090E00E94A81C60E070E080E292E00E9410
:1034E000DC1C61E070E080E292E00E94011D68E077
:1034F00070E080E292E00E94261D60E070E080E2D1
:1035000092E00E944B1DDF91CF910895CF93DF93FE
:103510001F921F92CDB7DEB789839A8380E092E035
:1035200029813A81FC01248735870F900F90DF9124
:10353000CF910895CF93DF9300D0CDB7DEB780E071
:1035400096E02FE7FC01228381E00E94681B19822C
:103550001A825DC060E070E080E292E00E94261D69
:103560000E94151B8B8368E070E080E292E00E946D
:10357000261D0E94151B982F8B8189278B8360E164
:1035800070E080E292E00E94261D0E94151B982F99
:103590008B8189278B8368E170E080E292E00E9452
:1035A000261D0E94151B982F8B8189278B8360E233
:1035B00070E080E292E00E94261D0E94151B982F69
:1035C0008B8189278B8368E270E080E292E00E9421
:1035D000261D0E94151B982F8B8189278B8360E302
:1035E00070E080E292E00E94261D0E94151B982F39
:1035F0008B8189278B838981880F89838B81982F81
:1036000091708981892B89838A818F5F8A838A81DE
:10361000883008F49FCF80E00E94681B8981239640
:10362000CDBFDEBFDF91CF910895CF93DF93CDB7AC
:10363000DEB780E092E021E0FC01268384E00E9476
:10364000541B000080E092E0FC018681882F90E00E
:1036500081709927892BB1F380E092E0FC01808989
:103660009189DF91CF910895CF93DF931F921F929D
:10367000CDB7DEB789839A8380E092E020E032E024
:10368000F90120812F73FC01208380E092E020E08B
:1036900032E0F90130812981232BFC0120830F9036
:1036A0000F90DF91CF910895CF93DF931F92CDB705
:1036B000DEB7898380E092E020E032E0F9013081DA
:1036C0002981232BFC0120830F90DF91CF91089556
:1036D000CF93DF931F92CDB7DEB78983898188238B
:1036E00051F080E092E020E032E0F9012081216099
:1036F000FC01208309C080E092E020E032E0F90183
:1037000020812E7FFC0120830F90DF91CF910895BF
:10371000CF93DF931F92CDB7DEB78983898188234A
:1037200051F080E092E020E032E0F9012181206157
:10373000FC01218309C080E092E020E032E0F90141
:1037400021812F7EFC0121830F90DF91CF9108957D
:10375000CF93DF931F92CDB7DEB78983898188230A
:1037600051F080E092E020E032E0F9012181286010
:10377000FC01218309C080E092E020E032E0F90101
:103780002181277FFC0121830F90DF91CF91089544
:10379000CF93DF931F921F92CDB7DEB789839A83B1
:1037A00080E092E020E032E0F9012181297FFC01F4
:1037B000218380E092E020E032E0F901318129812B
:1037C000232BFC0121830F900F90DF91CF9108955F
:1037D000CF93DF931F921F92CDB7DEB789839A8371
:1037E00080E092E020E032E0F90122812F78FC01B4
:1037F000228380E092E020E032E0F90132812981E9
:10380000232BFC0122830F900F90DF91CF9108951D
:10381000CF93DF931F92CDB7DEB789838981882349
:1038200051F080E092E020E032E0F9012281226054
:10383000FC01228309C080E092E020E032E0F9013F
:1038400022812D7FFC0122830F90DF91CF9108957B
:10385000CF93DF931F92CDB7DEB789838981882309
:1038600051F080E092E020E032E0F9012281216015
:10387000FC01228309C080E092E020E032E0F901FF
:1038800022812E7FFC0122830F90DF91CF9108953A
:10389000CF93DF931F921F92CDB7DEB789839A83B0
:1038A00080E092E020E032E0F90123812F73FC01F7
:1038B000238380E092E020E032E0F9013381298126
:1038C000232BFC0123830F900F90DF91CF9108955C
:1038D000CF93DF931F921F92CDB7DEB789839A8370
:1038E00080E092E020E032E0F9012381277CFC01B6
:1038F000238380E092E020E032E0F90133812981E6
:10390000232BFC0123830F900F90DF91CF9108951B
:10391000CF93DF931F921F92CDB7DEB789839A832F
:1039200080E092E020E032E0F9012381287FFC0171
:10393000238380E092E020E032E0F90133812981A5
:10394000232BFC0123830F900F90DF91CF910895DB
:10395000CF93DF931F921F92CDB7DEB789839A83EF
:1039600080E092E020E032E0F9012481287FFC0130
:10397000248380E092E020E032E0F9013481298163
:10398000232BFC0124830F900F90DF91CF9108959A
:10399000CF93DF931F92CDB7DEB7898380E092E0AB
:1039A00020E032E0F90136812981232BFC012683B6
:1039B0000F90DF91CF910895CF93DF9300D01F92A6
:1039C000CDB7DEB789839A836B837C8389819A81A3
:1039D000FC018081282F237E89819A81FC0120832C
:1039E00089819A81FC0190818B81292F282B8981E3
:1039F0009A81FC0120832496CDBFDEBFDF91CF9159
:103A00000895CF93DF9300D01F92CDB7DEB789839F
:103A10009A836B837C8389819A81FC018081282F22
:103A20002C7F89819A81FC01208389819A81FC0104
:103A300090818B81292F282B89819A81FC012083F9
:103A40002496CDBFDEBFDF91CF910895CF93DF9352
:103A500000D01F92CDB7DEB789839A836B837C83B6
:103A600089819A81FC018181282F277889819A8117
:103A7000FC01218389819A81FC0191818B81292F0D
:103A8000282B89819A81FC0121832496CDBFDEBF3A
:103A9000DF91CF910895CF93DF9300D01F92CDB7E0
:103AA000DEB789839A836B837C8389819A81FC0149
:103AB0008281282F2C7F89819A81FC012283898130
:103AC0009A81FC0192818B81292F282B89819A81EF
:103AD000FC0122832496CDBFDEBFDF91CF910895F4
:103AE000CF93DF93CDB7DEB72897CDBFDEBF86E299
:103AF00098E1A4E3B1EC8093C7229093C822A093ED
:103B0000C922B093CA2287E99BEEA8E5BEEA80935A
:103B1000C7229093C822A093C922B093CA228FEFE4
:103B20009BE3A2E2B5E68093CF229093D022A093AC
:103B3000D122B093D22282E09FEFA1E0B0E089834E
:103B40009A83AB83BC8389819A81AB81BC810BB69C
:103B5000ABBFFC0187919791A791B6910BBE8D8366
:103B60009E83AF83B8878D819E81AF81B885AC017C
:103B7000BD0187EB92E20E94E71F81E080935B2208
:103B80002896CDBFDEBFDF91CF910895CF93DF930D
:103B9000CDB7DEB780915B22882311F40E94701D9F
:103BA00087EB92E20E94661FDC01CB01BC01CD01D4
:103BB000DF91CF910895EF92FF920F931F93CF93D0
:103BC000DF93CDB7DEB72A97CDBFDEBF89879A874F
:103BD00089859A85FC0184859585A685B785898325
:103BE0009A83AB83BC8389859A85FC01808191810E
:103BF000A281B3819C01AD015F7789859A85FC0123
:103C000084819581A681B781282739274A275B2798
:103C100089859A85FC0180859185A285B385822757
:103C20009327A427B5278D839E83AF83B8878D8183
:103C30009E81AF81B885880F991FAA1FBB1F2D8158
:103C40003E814F81588582279327A427B5278D83EE
:103C50009E83AF83B88789819A81AB81BC819C01A7
:103C6000AD0156954795379527958D819E81AF81FA
:103C7000B88582279327A427B52729813A814B81CC
:103C80005C8182279327A427B52789839A83AB83F6
:103C9000BC8389859A85FC0184819581A681B78141
:103CA00029853A85F90180839183A283B38389852D
:103CB0009A85FC0180859185A285B38529853A8501
:103CC000F90184839583A683B78389819A81AB8127
:103CD000BC819C01AD01012E1AE0220F331F441F4D
:103CE000551F1A95D1F7102D8D819E81AF81B88512
:103CF00082279327A427B52729853A85F90180874C
:103D00009187A287B38729853A8589819A81AB817A
:103D1000BC81F90184879587A687B78789859A85AD
:103D2000FC01248135814681578189819A81AB814B
:103D3000BC8181709927AA27BB27B095A095909543
:103D400081959F4FAF4FBF4F7C018D0189859A852B
:103D5000FC0180899189A289B3898E219F21A023AA
:103D6000B12382279327A427B52729853A85F9010E
:103D700084839583A683B78389859A85FC012085F2
:103D800031854285538589819A81AB81BC8181705F
:103D90009927AA27BB27B095A095909581959F4F0D
:103DA000AF4FBF4F7C018D0189859A85FC018489C5
:103DB0009589A689B7898E219F21A023B1238227C7
:103DC0009327A427B52729853A85F901808791870C
:103DD000A287B3872A96CDBFDEBFDF91CF911F9117
:103DE0000F91FF90EF900895CF93DF93CDB7DEB79B
:103DF0002A97CDBFDEBF89879A8789859A85FC017E
:103E000084859585A685B78589839A83AB83BC8392
:103E100089859A85FC012081318142815381898580
:103E20009A85FC0180859185A285B385892F9A2F7B
:103E3000AB2FBB27820F931FA41FB51F8D839E83BB
:103E4000AF83B88729813A814B815C818D819E81C6
:103E5000AF81B88582279327A427B52789839A83C2
:103E6000AB83BC838D819E81AF81B885817099279A
:103E7000AA27BB27B095A095909581959F4FAF4FEE
:103E8000BF4F9C01AD0189859A85FC01808D918D84
:103E9000A28DB38D82239323A423B52329813A8154
:103EA0004B815C8182279327A427B52789839A8336
:103EB000AB83BC8389819A81AB81BC81BC01CD017C
:103EC0002A96CDBFDEBFDF91CF910895CF93DF93C8
:103ED0001F921F92CDB7DEB789839A8389819A8119
:103EE0000E94DB1D89819A810E94F41EDC01CB01B6
:103EF000BC01CD010F900F90DF91CF910895CF932A
:103F0000DF931F921F92CDB7DEB789839A83898191
:103F10009A81FC0180819181A281B381BF77892B35
:103F20008A2B8B2B09F04EC089819A81FC018481F8
:103F30009581A681B781892B8A2B8B2B09F042C0F2
:103F400089819A81FC0180859185A285B385892B21
:103F50008A2B8B2BB9F589819A81FC018485958503
:103F6000A685B785892B8A2B8B2B61F529813A8110
:103F700084E590E0A0E0B0E0F90180839183A28322
:103F8000B38329813A8189E490E0A0E0B0E0F901AF
:103F900084839583A683B78329813A818EE490E058
:103FA000A0E0B0E0F90180879187A287B3872981DB
:103FB0003A8189E590E0A0E0B0E0F9018487958737
:103FC000A687B7870F900F90DF91CF910895AF929A
:103FD000BF92CF92DF92EF92FF920F931F93CF93F6
:103FE000DF93CDB7DEB72C97CDBFDEBF8D839E8329
:103FF0004F83588769877A872D813E818F81988585
:10400000A985BA85F90180839183A283B3838D81C9
:104010009E81FC0180899189A289B3892D813E818D
:10402000F90184839583A683B7838D819E81FC01EA
:1040300084899589A689B7892D813E81F901808778
:104040009187A287B3878D819E81FC01808D918DA0
:10405000A28DB38D2D813E81F90184879587A68736
:10406000B78781E090E089839A8375C089819A81BE
:10407000FC01E370FF27EB87FC8789819A818370BD
:1040800099272D813E81880F991F880F991F820FD4
:10409000931FDC01ED90FD900D911C9189819A8117
:1040A0005C01990FCC08DD0889819A8101978370A2
:1040B00099272D813E81880F991F880F991F820FA4
:1040C000931FFC01208131814281538189819A8132
:1040D0000197837099276D817E81880F991F880FC2
:1040E000991F860F971FFC0180819181A281B38166
:1040F000072E7EE1B695A795979587957A95D1F786
:10410000702D82279327A427B5279C01AD0165E672
:1041100079E887E09CE60E94B324DC01CB018A0D9C
:104120009B1DAC1DBD1D8E259F25A027B1274D8150
:104130005E812B853C85220F331F220F331F240FF6
:10414000351FF90180839183A283B38389819A818A
:10415000019689839A8389819A8108970CF486CF86
:104160008D819E810E947F1F1B821C8209C08D81D0
:104170009E810E94DB1D8B819C8101968B839C8399
:104180008B819C8108979CF32C96CDBFDEBFDF917D
:10419000CF911F910F91FF90EF90DF90CF90BF9044
:1041A000AF900895CF93DF93CDB7DEB72C97CDBFF7
:1041B000DEBF8F83988769877A874B875C871982F0
:1041C0001A821B821C821D821E8220C08D819E81CC
:1041D000880F991F880F991F29853A85820F931F91
:1041E000FC0180819181A281B38129813A814B8137
:1041F0005C8182279327A427B52789839A83AB8381
:10420000BC838D819E8101968D839E832D813E810D
:104210008B859C8528173907CCF289819A81AB81DF
:10422000BC812F813885AC01BD01C9010E94E71F07
:104230002C96CDBFDEBFDF91CF910895EF92FF9214
:104240000F931F93CF93DF9300D000D0CDB7DEB78D
:104250008D839E838D819E81FC01208131814281ED
:1042600053818D819E81FC0184819581A681B781D6
:104270007C018D01689414F816950795F794E794DE
:104280001694D1F7072E7BE1880F991FAA1FBB1F39
:104290007A95D1F7702D8E299F29A02BB12B79010A
:1042A0008A01E81AF90A0A0B1B0BD801C701898396
:1042B0009A83AB83BC838D819E81FC0124813581EF
:1042C000468157818D819E81FC0180859185A285E3
:1042D000B3857C018D010D2EDFE016950795F794CF
:1042E000E794DA95D1F7D02D072E71E1880F991F49
:1042F000AA1FBB1F7A95D1F7702D8E299F29A02B5D
:10430000B12B82279327A427B5272D813E81F90160
:1043100080839183A283B3838D819E81FC0120855C
:104320003185428553858D819E81FC0184859585EB
:10433000A685B785820F931FA41FB51F2D813E81CF
:10434000F90184839583A683B7838D819E81FC01C7
:10435000248535854685578589819A81AB81BC81C5
:10436000820F931FA41FB51F2D813E81F901808705
:104370009187A287B3878D819E81FC012081318145
:104380004281538189819A81AB81BC81820F931FC5
:10439000A41FB51F2D813E81F90184879587A687CB
:1043A000B7878D819E81FC0184859585A685B7851B
:1043B000BC01CD012696CDBFDEBFDF91CF911F910D
:1043C0000F91FF90EF900895CF93DF93CDB7DEB7B5
:1043D0002A97CDBFDEBF8D839E834F835887698721
:1043E0007A872D813E818FE294EAA2ECB4E8F9014C
:1043F00080839183A283B3832D813E818F819885B1
:10440000A985BA85F90184879587A687B7878D81A5
:104410009E81FC0184859585A685B7852D813E8189
:10442000F90180879187A287B3878D819E81FC01E6
:1044300080859185A285B3852D813E81F901848394
:104440009583A683B78319821A821B821C820FC0B0
:104450008D819E810E941E2189819A81AB81BC81C0
:104460000196A11DB11D89839A83AB83BC83898189
:104470009A81AB81BC814497A105B10548F32A9686
:10448000CDBFDEBFDF91CF910895CF93DF931F9211
:10449000CDB7DEB7898389818A3018F48981805D40
:1044A00002C08981895A0F90DF91CF910895CF93EF
:1044B000DF931F92CDB7DEB789838981803330F0D7
:1044C00089818A3318F48981805313C089818136A8
:1044D00030F08981873618F4898187550AC089812F
:1044E000813430F08981873418F48981875301C081
:1044F00080E30F90DF91CF9108950F931F93CF9397
:10450000DF93CDB7DEB72B97CDBFDEBF8BE893E04F
:104510008A839B838A819B819C01F9018591959176
:10452000A591B4919F018C839D83AE83BF832A8321
:104530003B838C819D81AE81BF8188879987AA87C3
:10454000BB8788859985AA85BB85AC01BD018FE5B0
:1045500092E20E94E421188619861A861B86198227
:1045600018C08981882F90E0880F991F880F991FA4
:104570008C0101591D4D8FE592E20E941E21DC0144
:10458000CB01F80180839183A283B38389818F5FFC
:1045900089838981883028F32B96CDBFDEBFDF91D8
:1045A000CF911F910F910895CF93DF931F92CDB7B5
:1045B000DEB78983898180935C220F90DF91CF9150
:1045C0000895CF93DF93CDB7DEB72897CDBFDEBF79
:1045D0008F8398871A82198230C08981882F90E052
:1045E00086599C4F8B839C838B819C81FC01849199
:1045F0008D838D818E838981882F90E081599D4D97
:10460000FC0180819E8189278E838981882F90E09B
:104610002F813885820F931FFC0190818E8198270E
:1046200080915C228095892B882F90E0982F8A8139
:10463000892B8A8389818F5F89838981803268F29F
:1046400081E09A81992309F080E02896CDBFDEBFF2
:10465000DF91CF9108951F93CF93DF93CDB7DEB74E
:104660002D97CDBFDEBF8C879D871A82198263C0CC
:104670008981882F90E0880F991F86599C4F8B83E2
:104680009C838B819C81FC0184918D838D818E83A1
:104690008981882F90E0880F991F019686599C4F39
:1046A0008F8398878F819885FC018491898789857C
:1046B0008A878981882F90E0880F991F81599D4DA5
:1046C000FC0180819E8189278E838981882F90E0DB
:1046D000880F991F019681599D4DFC0180819A8513
:1046E00089278A878E810E945722882F90E08295A1
:1046F0009295907F9827807F9827182F8A850E940F
:104700005722812B8B878981882F90E02C853D85CE
:10471000820F931FFC0190818B85982780915C22EA
:104720008095892B882F90E0982F8A81892B8A8306
:1047300089818F5F89838981803108F499CF81E0F5
:104740009A81992309F080E02D96CDBFDEBFDF91DD
:10475000CF911F910895CF93DF931F92CDB7DEB70E
:104760008983898180935D220F90DF91CF91089595
:10477000CF93DF93CDB7DEB72797CDBFDEBF8E8354
:104780009F8319822AC08981882F90E086599C4F87
:104790008A839B838A819B81FC0184918C838C8199
:1047A0008D838981882F90E081599D4DFC01808106
:1047B0009D8189278D838981882F90E02E813F817B
:1047C000820F931F20915D22322F30952D81232B54
:1047D000FC01208389818F5F89838981803298F2EF
:1047E0002796CDBFDEBFDF91CF910895FF920F9343
:1047F0001F93CF93DF93CDB7DEB72B97CDBFDEBF2F
:104800008A879B8719825CC08981882F90E0880FF6
:10481000991F86599C4F8A839B838A819B81FC01C7
:1048200084918C838C818D838981882F90E0880F7F
:10483000991F019686599C4F8E839F838E819F81FD
:10484000FC0184918887888589878981882F90E0F9
:10485000880F991F81599D4DFC0180819D81892779
:104860008D838981882F90E0880F991F0196815947
:104870009D4DFC0180819985892789878981882FB1
:1048800090E02A853B858901080F191F8D810E94C0
:104890005722882F90E082959295907F9827807F6D
:1048A0009827F82E89850E9457229F2D982B80915A
:1048B0005D228095892BF801808389818F5F8983B0
:1048C0008981803108F4A0CF2B96CDBFDEBFDF9168
:1048D000CF911F910F91FF900895CF93DF931F9277
:1048E000CDB7DEB78983898180935E220F90DF91F7
:1048F000CF910895CF93DF93CDB7DEB72797CDBF84
:10490000DEBF8E839F83198225C08981882F90E026
:1049100086599C4F8A839B838A819B81FC01849169
:104920008C838C818D838981882F90E081599D4D66
:10493000FC0180819D8189278D8380915E22982F43
:1049400090958D81892B2E813F81F901199589815F
:104950008F5F898389818032C0F22796CDBFDEBF09
:10496000DF91CF910895DB018F939F930E942525BE
:10497000BF91AF91A29F800D911DA39F900DB29FFB
:10498000900D11240895AA1BBB1B51E107C0AA1F5B
:10499000BB1FA617B70710F0A61BB70B881F991FE0
:1049A0005A95A9F780959095BC01CD01089597FB84
:1049B000072E16F4009407D077FD09D00E94C32477
:1049C00007FC05D03EF4909581959F4F0895709512
:1049D00061957F4F0895A1E21A2EAA1BBB1BFD0112
:1049E0000DC0AA1FBB1FEE1FFF1FA217B307E407CE
:1049F000F50720F0A21BB30BE40BF50B661F771F26
:104A0000881F991F1A9469F7609570958095909505
:104A10009B01AC01BD01CF010895EE0FFF1F881F60
:104A20008BBF0790F691E02D1BBE1994A29FB00199
:104A3000B39FC001A39F700D811D1124911DB29FD2
:104A4000700D811D1124911D08950E941625A59FAA
:104A5000900DB49F900DA49F800D911D1124089579
:104A60000F93083090F0982F872F762F652F542FB3
:104A7000432F322F22270850F4CF220F331F441F19
:104A8000551F661F771F881F991F0A95B2F70F9150
:104A9000089597FB10F8169400080F93083098F0CB
:104AA0000850232F342F452F562F672F782F892F0B
:104AB000902DF4CF059497958795779567955795A1
:104AC0004795379527950A95AAF70F9108952A0DCE
:104AD0003B1D4C1D5D1D6E1D7F1D801F911F089588
:104AE000CF93DF938230910510F482E090E0E09163
:104AF000D522F091D62220E030E0C0E0D0E030971F
:104B000011F14081518148175907C0F048175907E2
:104B100061F482819381209719F08A839B832BC053
:104B20008093D5229093D62226C02115310519F005
:104B30004217530718F49A01BE01DF01EF0102800A
:104B4000F381E02DDCCF2115310509F1281B390B4C
:104B50002430310590F412968D919C911397611534
:104B6000710521F0FB018283938304C08093D522D9
:104B70009093D622FD01329644C0FD01E20FF31F4F
:104B800081939193225031092D933C933AC0209107
:104B9000D3223091D422232B41F420911B20309139
:104BA0001C202093D3223093D422209119203091BD
:104BB0001A202115310541F42DB73EB740911D2033
:104BC00050911E20241B350BE091D322F091D4226A
:104BD000E217F307A0F42E1B3F0B2817390778F0D4
:104BE000AC014E5F5F4F2417350748F04E0F5F1F33
:104BF0004093D3225093D4228193919302C0E0E05A
:104C0000F0E0CF01DF91CF9108950F931F93CF93E1
:104C1000DF93009709F48CC0FC0132971282138253
:104C20000091D5221091D6220115110581F4208121
:104C30003181820F931F2091D3223091D4222817E3
:104C4000390779F5E093D322F093D42271C0D801CB
:104C500040E050E0AE17BF0750F412962D913C9102
:104C60001397AD012115310509F1D901F3CF9D014C
:104C7000DA012283338360817181860F971F821747
:104C8000930769F4EC0128813981260F371F2E5FC5
:104C90003F4F208331838A819B8182839383452B7D
:104CA00029F4E093D522F093D62242C01296ED93D8
:104CB000FC931397ED01499159919E01240F351FE3
:104CC000E217F30771F480819181840F951F02969A
:104CD0008D939C9311978281938112968D939C93CF
:104CE0001397E0E0F0E0D80112968D919C91139714
:104CF000009719F0F8018C01F6CF8D919C919801E5
:104D00002E5F3F4F820F931F2091D3223091D422E8
:104D10002817390769F4309729F41092D522109298
:104D2000D62202C0128213820093D3221093D4227F
:104D3000DF91CF911F910F9108952F923F924F9243
:104D40005F926F927F928F929F92AF92BF92CF921B
:104D5000DF92EF92FF920F931F93CF93DF935C014B
:104D60006B017A016115710519F0FB018083918354
:104D7000E114F10429F0C7010297839708F0F1C00C
:104D8000E5012196F5011081812F90E00E94CD2749
:104D9000892B11F05E01F4CF1D3229F42196F50123
:104DA000118101E007C01B3221F4E5012296F501D3
:104DB000118100E0E114F10459F1F0E1EF16F10482
:104DC00061F41033E1F488818F7D883569F51981AC
:104DD0002296026070E1E72EF12C88E0E816F104DB
:104DE00039F12CF4F2E0EF16F104C9F12AC08AE09F
:104DF000E816F10479F0E0E1EE16F10411F550E166
:104E0000E52EF12C812C912CA12C68E0B62E2CC023
:104E10001033C9F23AE0E32EF12C4CEC842E982C9E
:104E2000A82C4CE0B42E20C010E3E114F104A9F644
:104E300098E0E92EF12C812C912CA12C20E1B22EAE
:104E400013C060E070E080E090E897010F2C000C48
:104E5000440B550B0E94EB2449015A0105C0812CDB
:104E6000912CA12C80E4B82E60E020E030E0A90174
:104E700027010F2C000C660877081E01E0EDE10FFA
:104E8000EA3060F08FEB810F8A3110F4E9EC05C055
:104E90008FE9810F8A3128F5E9EAE10F8E2F90E042
:104EA0008E159F05F4F467FD18C082169306A406BC
:104EB000B50690F0C301B2010E94B3249B01AC017E
:104EC0002E0F311D411D511D213031054105F0E8E6
:104ED0005F0710F461E001C06FEF2196F1011081CE
:104EE000CCCF802F8170C114D10471F0662329F0DA
:104EF0002197F601C083D18307C001FF19C0229713
:104F0000F601C083D18314C067FF12C0811105C0B0
:104F10002FEF3FEF4FEF5FE704C020E030E040E0CD
:104F200050E882E290E08093D7229093D82216C076
:104F3000882341F050954095309521953F4F4F4F34
:104F40005F4F0CC057FF0AC082E290E08093D722E7
:104F50009093D8222FEF3FEF4FEF5FE7B901CA01DF
:104F600004C060E070E080E090E0DF91CF911F919D
:104F70000F91FF90EF90DF90CF90BF90AF909F90F8
:104F80008F907F906F905F904F903F902F900895FB
:104F900081E090E0F8940C942C2B91110C944A2A07
:104FA000803219F089508550C8F70895FB01DC0163
:104FB00002C005900D9241505040D8F70895FB0172
:104FC000DC0104C08D910190801921F441505040C2
:104FD000C8F7881B990B0895FB01DC0102C0019002
:104FE0000D9241505040D8F708956817790768F43A
:104FF000FB01DC01E40FF51FA40FB51F02C00290F6
:105000000E9241505040D8F708950C94EC27DC01E3
:1050100001C06D9341505040E0F70895FC0181912B
:10502000861721F08823D9F7992708953197CF0162
:105030000895FC0101900020E9F7809590958E0F6E
:105040009F1F08950F931F93CF93DF93CDB7DEB7C4
:105050002E97CDBFDEBF8C01CA0146E04C83098389
:105060001A8377FF02C060E070E8FB013197ED839F
:10507000FE83A901BC01CE0101960E9455284D81F5
:105080005E8157FD0AC02F813885421753070CF403
:105090009A01F801E20FF31F10822E96CDBFDEBFFA
:1050A000DF91CF911F910F9108952F923F924F92D0
:1050B0005F926F927F928F929F92AF92BF92CF92A8
:1050C000DF92EF92FF920F931F93CF93DF93CDB7B1
:1050D000DEB72C97CDBFDEBF7C016B018A01FC01DE
:1050E00016821782838181FFBDC1CE0101964C01DA
:1050F000F7019381F60193FD859193FF81916F01F3
:10510000882309F4ABC1853239F493FD859193FF6F
:1051100081916F01853229F4B70190E00E94632AE2
:10512000E7CF512C312C20E02032A0F48B3269F0F3
:1051300030F4803259F0833269F420612CC08D3212
:1051400039F0803339F4216026C02260246023C006
:10515000286021C027FD27C030ED380F3A3078F4A1
:1051600026FF06C0FAE05F9E300D1124532E13C0B7
:105170008AE0389E300D1124332E20620CC08E320E
:1051800021F426FD6BC1206406C08C3611F4206822
:1051900002C0883641F4F60193FD859193FF819119
:1051A0006F018111C1CF982F9F7D9554933028F4C2
:1051B0000C5F1F4FFFE3F9830DC0833631F0833757
:1051C00071F0833509F05BC022C0F80180818983CA
:1051D0000E5F1F4F44244394512C540115C03801D5
:1051E000F2E06F0E711CF801A080B18026FF03C0B1
:1051F000652D70E002C06FEF7FEFC5012C870E9424
:10520000582A2C0183012C852F77222E17C03801B4
:10521000F2E06F0E711CF801A080B18026FF03C080
:10522000652D70E002C06FEF7FEFC5012C870E94F3
:105230004D2A2C012C852068222E830123FC1BC0C3
:10524000832D90E048165906B0F4B70180E290E053
:105250000E94632A3A94F4CFF50127FC859127FE3A
:1052600081915F01B70190E00E94632A31103A9466
:10527000F1E04F1A51084114510471F7E5C084362A
:1052800011F0893639F5F80127FF07C06081718177
:10529000828193810C5F1F4F08C060817181072E4E
:1052A000000C880B990B0E5F1F4F2F76722E97FF05
:1052B00009C090958095709561957F4F8F4F9F4F56
:1052C0002068722E2AE030E0A4010E949B2AA82EBA
:1052D000A81844C0853729F42F7EB22E2AE030E08A
:1052E00025C0F22FF97FBF2E8F36C1F018F4883514
:1052F00079F0B4C0803719F0883721F0AFC02F2F74
:105300002061B22EB4FE0DC08B2D8460B82E09C072
:1053100024FF0AC09F2F9660B92E06C028E030E017
:1053200005C020E130E002C020E132E0F801B7FE24
:1053300007C060817181828193810C5F1F4F06C01D
:105340006081718180E090E00E5F1F4FA4010E9498
:105350009B2AA82EA818FB2DFF777F2E76FE0BC068
:10536000372D3E7FA51450F474FE0AC072FC08C0AD
:10537000372D3E7E05C0BA2C372D03C0BA2C01C094
:10538000B52C34FF0DC0FE01EA0DF11D8081803384
:1053900011F4397E09C032FF06C0B394B39404C03F
:1053A000832F867809F0B39433FD13C030FF06C015
:1053B0005A2CB31418F4530C5B18B32CB31468F4C0
:1053C000B70180E290E03C870E94632AB3943C8559
:1053D000F5CFB31410F43B1801C0312C34FF12C0C8
:1053E000B70180E390E03C870E94632A3C8532FF4E
:1053F00017C031FD03C088E790E002C088E590E067
:10540000B7010CC0832F867859F031FF02C08BE2C0
:1054100001C080E237FD8DE2B70190E00E94632A6F
:10542000A51438F4B70180E390E00E94632A5A94EF
:10543000F7CFAA94F401EA0DF11D8081B70190E045
:105440000E94632AA110F5CF332009F451CEB70191
:1054500080E290E00E94632A3A94F6CFF7018681B9
:10546000978102C08FEF9FEF2C96CDBFDEBFDF91FB
:10547000CF911F910F91FF90EF90DF90CF90BF9051
:10548000AF909F908F907F906F905F904F903F90E4
:105490002F900895992788270895FC010590615061
:1054A00070400110D8F7809590958E0F9F1F08953A
:1054B000FC016150704001900110D8F780959095E3
:1054C0008E0F9F1F08950F931F93CF93DF93FB01C0
:1054D000238121FD03C08FEF9FEF28C022FF16C05C
:1054E00046815781248135814217530744F4A081B6
:1054F000B1819D012F5F3F4F208331838C932681A3
:1055000037812F5F3F4F2683378310C0EB01092F70
:10551000182F0084F185E02D1995892BE1F68E81F5
:105520009F8101968E839F83812F902FDF91CF9152
:105530001F910F910895FA01AA27283051F12031C7
:1055400081F1E8946F936E7F6E5F7F4F8F4F9F4F17
:10555000AF4FB1E03ED0B4E03CD0670F781F891F59
:105560009A1FA11D680F791F8A1F911DA11D6A0F27
:10557000711D811D911DA11D20D009F468943F91DA
:105580002AE0269F11243019305D3193DEF6CF01D9
:105590000895462F4770405D4193B3E00FD0C9F79F
:1055A000F6CF462F4F70405D4A3318F0495D31FD0C
:1055B0004052419302D0A9F7EACFB4E0A69597955F
:1055C000879577956795BA95C9F700976105710535
:1055D00008959B01AC010A2E06945795479537957F
:1055E0002795BA95C9F7620F731F841F951FA01DD9
:1055F000089503D0808199270895E0ECF1E0378584
:1056000037FDFDCF348538603487FC01E050F04F22
:105610000895262FE0ECF1E0378537FDFDCF348586
:10562000377F3487378531FF09C036E3328738ED5D
:1056300034BF31E03387378537FDFDCF33E3328721
:10564000808391831282248325E3228728ED31E031
:0C56500024BF338701960895F894FFCF23
:10565C00120005000069871900A00840060408091B
:10566C0020B0096006408011200000D9222000469D
:10567C00492064657465637465642C20706572667A
:10568C006F726D696E6720736C6F772073746172C3
:10569C007475702E2E2E2054686973206D617920DC
:1056AC0074616B652061207768696C652E0A000D4A
:1056BC0025692525000D256925250A0041424F52F3
:1056CC00542120636F6E7374616E742072616E640A
:1056DC006F6D2076616C7565210D0A006261636BDC
:1056EC00646F6F720055030C349FC95E1385935E13
:1056FC00A23366B5A99945D8BF35D372C3AA722B0C
:10570C00B97492CA260D0A496E697469616C697A1A
:10571C00696E672E2E2E000D496E697469616C6975
:10572C007A65642020202020200D0A000D0A45787F
:10573C0070656374656420666F726D61743A205B8A
:10574C006E616D655F6C656E6774685D3A5B706108
:10575C007373776F72645F6C656E6774685D3A5BC8
:10576C006E616D655D5B70617373776F72645D0004
:10577C000D0A556E6B6E6F776E2075736572210016
:10578C000D0A57726F6E672070617373776F726456
:10579C0021000D0A596F757220666C616720697360
:1057AC003A0D0A000D0A596F75207365656D2074EA
:1057BC006F20626520617474656D7074696E67200A
:1057CC00746F20696E666C75656E636520746865B0
:1057DC0020524E472E20496620796F752062656CE9
:1057EC0069657665207468697320746F2062652022
:1057FC00612066616C736520706F7369746976657E
:10580C002C20796F752063616E207265747279201B
:10581C00646F696E67207768617420796F75206496
:06582C0069642E0D0A0064
:00000001FF
