:100000006364696E6F70737578585B0011E0A0E6E9
:10001000B0E0E8E3F2E103C0C89531960D92A83C48
:10002000B107D1F723E1A8ECB1E001C01D92AE3ECB
:10003000B207E1F7E8ECF1E088EE93E11082EF56C9
:10004000FF4FE817F907D1F708958F929F92AF926B
:10005000BF92EF92FF920F931F93CF93DF93E82EFF
:10006000F92E842E952EA62EB72E21E0821A910805
:10007000A108B108C0E0D0E008EE13E114C08A3056
:100080009105D1F05D2F4C2F0D2E000C660B770BD8
:10009000481559056A057B0530F4EE2DFF2DEC0F50
:1000A000FD1F80832196E02FF12F80819181E6D181
:1000B0008F3FFFEF9F0719F7CE0DDF1D188281E0FC
:1000C000DF91CF911F910F91FF90EF90BF90AF9074
:1000D0009F908F9008950F931F93CF93DF93CDB789
:1000E000DEB762970FB6F894DEBF0FBECDBF40E11A
:1000F00050E060E070E00C2F1D2F0F5F1F4F802F2E
:10010000912FA3DF8C2F9D2F41969F938F9380EB90
:1001100090E09F938F931F930F9339D20F900F907E
:100120000F900F900F900F90019731F080E690E0C4
:10013000FAD180E090E002C089899A8962960FB670
:10014000F894DEBF0FBECDBFDF91CF911F910F910D
:100150000895CF92DF92EF92FF92CF93DF93809139
:10016000C801882301F1E9E5F2E028EE33E1CC246F
:10017000C394D12CE12CF12C8081882351F08FEF96
:10018000C81AD80AE80AF80AEF56FF4FE217F30731
:1001900099F780E2C816D104E104F10441F487E73D
:1001A00090E0C1D146C0C12CD12CE12CF12C83E9C7
:1001B00090E0B9D1CC2DDD2DCC0FDD1FCC0FDD1F94
:1001C000CC0FDD1FCC0DDD1DC295D295D07FDC2775
:1001D000C07FDC27CC0DDD1D40E150E060E070E029
:1001E0008C2F9D2F87539E4F30DF8AE990E09BD163
:1001F00040E850E060E070E08C2F9D2F87529E4FCA
:1002000024DFC853DE4F81E088838FEFC81AD80AF5
:10021000E80AF80AFF92EF92DF92CF9280EA90E02C
:100220009F938F936AD10F900F900F900F900F9024
:100230000F90DF91CF91FF90EF90DF90CF900895D6
:1002400084EB90E070D147DF282F392F21503109FE
:100250002032310568F01F9280E28F9383ED90E0A9
:100260009F938F934AD10F900F900F900F90089506
:10027000E22FF32FEE0FFF1FEE0FFF1FEE0FFF1FFA
:10028000E20FF31FE295F295F07FFE27E07FFE2755
:10029000E20FF31FE853FE4F4081442361F1422FE8
:1002A000532F440F551F440F551F440F551F420F26
:1002B000531F42955295507F5427407F5427240F57
:1002C000351F422F532F47525E4F5F934F93275353
:1002D0003E4F3F932F939F938F9382EF90E09F9396
:1002E0008F930BD18DB79EB708960FB6F8949EBF2B
:1002F0000FBE8DBF08959F938F9383E091E09F93EE
:100300008F93FBD00F900F900F900F900895CF9286
:10031000DF92EF92FF920F931F93CF93DF93C9EC7D
:10032000D1E0CC24C394D12CE12CF12C0BE111E0D1
:10033000EC2FFD2F31978081882389F0DF93CF93B5
:10034000FF92EF92DF92CF921F930F93D6D08DB78B
:100350009EB708960FB6F8949EBF0FBE8DBF9FEF55
:10036000C91AD90AE90AF90ACF56DF4F81E2C8163D
:10037000D104E104F104E1F6DF91CF911F910F91D7
:10038000FF90EF90DF90CF900895A5DE0197803227
:10039000910568F01F9280E28F9383ED90E09F9328
:1003A0008F93ABD00F900F900F900F900895E82F80
:1003B000F92FEE0FFF1FEE0FFF1FEE0FFF1FE80FCD
:1003C000F91FE295F295F07FFE27E07FFE27E80F08
:1003D000F91FE853FE4F2081222301F1E82FF92F66
:1003E000EE0FFF1FEE0FFF1FEE0FFF1FE80FF91FAD
:1003F000E295F295F07FFE27E07FFE27E80FF91FD8
:10040000E853FE4F10829F938F9388E291E09F9371
:100410008F9373D00F900F900F900F90089588E3F3
:1004200091E081D088E491E07ED080E691E07BD0BD
:100430008AE791E078D084E991E075D008958DEA5B
:1004400091E071D0ECDF47DE8230910571F02CF441
:10045000009789F0019739F0F5CF8330910539F095
:10046000049739F0EFCF75DEEDCFEADEEBCF4FDF4B
:10047000E9CF8BDFE7CF80E090E00895CF93DF9363
:10048000C82FD92F2B8120FF33C026FF0AC02F7B16
:100490002B838E819F8101969F838E838A8190E03A
:1004A00029C022FF0FC0E881F9818081082E000C4D
:1004B000990B009719F420622B831AC03196F983A7
:1004C000E8830EC0EA85FB85099597FF09C02B815B
:1004D000019611F080E201C080E1822B8B8308C07D
:1004E0002E813F812F5F3F4F3F832E83992702C08C
:1004F0008FEF9FEFDF91CF910895A0E0B0E0E2E8A9
:10050000F2E072C64C2F5D2F4B5F5F4FE42FF52F4B
:10051000619171914E2F5F2F8091EA139091EB13AF
:100520004ED0E2E07DC60F931F93CF93DF93E0910F
:10053000EA13F091EB13238121FF1FC0082F192F1D
:10054000D0E0C0E0E02FF12F81910E2F1F2F60919E
:10055000EA137091EB13A62FB72F1896ED91FC912B
:100560001997882331F00995892B61F3DFEFCFEFDD
:10057000E9CF8AE00995892B19F08FEF9FEF02C030
:100580008D2F9C2FDF91CF911F910F910895AEE099
:10059000B0E0ECECF2E028C685E08C838B899C8986
:1005A0009A8389834C2F5D2F495E5F4F6D897E89C9
:1005B0008C2F9D2F0196D0D32E96E2E031C6ABE072
:1005C000B0E0E4EEF2E000C6C82ED92EE62EF72EFB
:1005D000042F152FE82FF92F17821682838181FFB0
:1005E000EFC18C2F9D2F0196682E792EEC2DFD2DBD
:1005F0009381EE2DFF2D93FDC89593FF00803196DA
:10060000802DEE2EFF2E882309F4D5C1853251F4BA
:1006100093FDC89593FF00803196802DEE2EFF2E1E
:10062000853229F46C2D7D2D90E001D5DFCF912C02
:10063000212C312CFFE1F315E0F08B3279F038F406
:10064000803279F08332A9F4232D206110C08D32DD
:1006500059F0803371F4232D216009C0832D82600D
:10066000382EE32DE46022C0F32DF86025C0322E31
:1006700027C037FC31C020ED280F2A3088F436FE21
:1006800006C0892D6AE097D5922E980E19C0822D4A
:100690006AE091D5222E280E832D8062382E10C05C
:1006A0008E3231F436FC87C1E32DE0643E2E08C063
:1006B0008C3621F4F32DF0683F2E02C0883661F4A9
:1006C000EE2DFF2D93FDC89593FF00803196802D70
:1006D000EE2EFF2E8111AECF982F9F7D9554933033
:1006E00028F40C5F1F4F2FE329830EC0833631F0AF
:1006F000833781F0833509F067C027C0E02FF12FE1
:10070000808189830E5F1F4F88248394912CA62CAF
:10071000B72C17C0402E512EF2E04F0E511CE02F87
:10072000F12FA080B18036FE03C0692D70E002C0B9
:100730006FEF7FEF8A2D9B2D6ED4882E992E042D7E
:10074000152DF32DFF773F2E1AC0402E512E22E09B
:10075000420E511CE02FF12FA080B18036FE03C065
:10076000692D70E002C06FEF7FEF8A2D9B2D46D47C
:10077000882E992EF32DF0683F2E042D152D33FC75
:100780001FC0822D90E088169906D0F46C2D7D2D27
:1007900080E290E04CD42A94F4CFEA2DFB2D37FC74
:1007A000C89537FE00803196802DAE2EBF2E6C2D61
:1007B0007D2D90E03CD421102A9421E0821A9108EA
:1007C0008114910451F7EDC0843611F0893649F552
:1007D000E02FF12F37FE07C0608171818281938104
:1007E0000C5F1F4F08C060817181072E000C880BC1
:1007F000990B0E5F1F4FF32DFF763F2E97FF09C019
:1008000090958095709561957F4F8F4F9F4FF068C1
:100810003F2E2AE030E0462D572D66D4882E8618CC
:1008200046C0853731F4232D2F7EB22E2AE030E0EA
:1008300025C0932D997FB92E8F36C1F018F48835D5
:1008400079F0B9C0803719F0883721F0B4C0E92FAA
:10085000E061BE2EB4FE0DC0FB2DF460BF2E09C0BA
:1008600034FE0AC0292F2660B22E06C028E030E0F0
:1008700005C020E130E002C020E132E0E02FF12F9E
:10088000B7FE07C060817181828193810C5F1F4F29
:1008900006C06081718180E090E00E5F1F4F462DA1
:1008A000572D22D4882E8618FB2DFF773F2E36FE3B
:1008B0000DC0232D2E7FA22E891458F434FE0BC0B8
:1008C00032FC09C0832D8E7EA82E05C0B82CA32C27
:1008D00003C0B82C01C0B92CA4FE10C0EC2FFD2F12
:1008E000E80DF11D8081803321F49A2D997EA92E87
:1008F00009C0A2FE06C0B394B39404C08A2D8678C2
:1009000009F0B394A3FC11C0A0FE06C0B21488F491
:10091000280C922C9B180EC0B21460F46C2D7D2D07
:1009200080E290E084D3B394F7CFB21418F42B187C
:1009300002C0982C212CA4FE11C06C2D7D2D80E3CB
:1009400090E075D3A2FE18C0A1FC03C088E790E038
:1009500002C088E590E06C2D7D2D0DC08A2D867833
:1009600059F0A1FE02C08BE201C080E2A7FC8DE23B
:100970006C2D7D2D90E05BD3891438F46C2D7D2D8A
:1009800080E390E054D39A94F7CF8A94E62DF72D24
:10099000E80DF11D80816C2D7D2D90E048D38110F4
:1009A000F4CF222009F422CE6C2D7D2D80E290E040
:1009B0003ED32A94F6CFEC2DFD2D8681978102C07F
:1009C0008FEF9FEF2B96E2E11BC420FD0AC0E82FBA
:1009D000F92F23FD05C022FF02C073836283518378
:1009E0004083089544FD1DC046FD1DC0462F572F6E
:1009F000682F792FA42FB52FE62FF72FAA0FBB1F33
:100A0000EE1FFF1F1094D1F74A0F5B1F6E1F7F1F51
:100A1000972F862F752F642F660F771F881F991FBA
:100A200009C033E001C034E0660F771F881F991FAB
:100A30003150D1F7620F711D811D911D08950F93E3
:100A40001F93CF93DF93082F192F802F912F16DD3F
:100A5000C82FD92F97FD08C0BAD2892BB1F7602FC4
:100A6000712F8C2F9D2F26D38C2F9D2FDF91CF910F
:100A70001F910F9108958F929F92AF92BF92EF9224
:100A8000FF920F931F93CF93DF93082F192FD62F29
:100A9000E42EF52EB22EF2DC282F392F33272B32FD
:100AA000310531F02D32310561F48B2D8068B82E7F
:100AB000D15011F480E070C0802F912FDFDC97FDC2
:100AC000F9CFCB2DCD7F2B2D207311F5803301F580
:100AD000AA24AA94AD0E09F448C0802F912FCEDC31
:100AE00097FD43C0282F392F2F7D33272835310517
:100AF00049F4C264D250C9F1802F912FBFDC97FF17
:100B000007C033C0B6FE02C0C26001C0C261DA2DA8
:100B1000812C912CA12CB12C20ED280F283080F0B5
:100B2000C4FF04C0602F712FC5D21CC02A3040F012
:100B3000C6FFF8CF2F7D3FEE320F363098F72750A3
:100B40004C2F9B2D8A2D792D682D4CDF862E972ECC
:100B5000A82EB92EC260D15061F0802F912F8EDC6B
:100B600097FFDACFC1FD05C0A5CF812C912CA12C18
:100B7000B12CC7FF08C0B094A09490948094811CBD
:100B8000911CA11CB11C2C2F7B2D6A2D592D482D99
:100B90008E2D9F2D1ADF81E0DF91CF911F910F9154
:100BA000FF90EF90BF90AF909F908F900895A0E23C
:100BB000B0E0ECEDF5E00BC3A82EB92E962EE42E96
:100BC000F52EE22FF32F0C2F1D2F0F5F1F4FC02E7E
:100BD000D12E80E2A02FB12F1D928A95E9F7AA2D80
:100BE000BB2D13968C9080E090E0612C712C30E04E
:100BF00061E070E083FCC89583FE00803196202D73
:100C00000E2F1F2F522E211103C080E090E0A1C0B3
:100C10002E3511F4009769F1432F50E0481759071A
:100C20003CF42D3571F12D3219F4772021F103C0F8
:100C3000772009F476C0452D469546954695AC2D0E
:100C4000BD2DA40FB11D452D4770062F172F02C0D3
:100C5000000F111F4A95E2F7402F512F5C91452B51
:100C60004C93651459F0561410F45394E4CF5A94ED
:100C7000E2CF31E004C07724739401C0712C019657
:100C8000B9CF772019F08E8180628E83311103C035
:100C9000882483941CC0EC2DFD2D2C2F3D2F2F5D1F
:100CA0003F4F8081809581932E173F07D1F7F0CF7A
:100CB000E114F10441F0AE2DBF2D8C93EE2DFF2DEC
:100CC0003196EE2EFF2E9A94812C992009F18A2DCF
:100CD0009B2DD4DB97FD1AC0E82FF92FFF2723E0C7
:100CE000F595E7952A95E1F7EC0DFD1D208130E0A3
:100CF000482F592F4770552702C0359527954A959B
:100D0000E2F720FDD5CF6A2D7B2DD4D181107DCF88
:100D1000E114F10419F0AE2DBF2D1C92802F912FFC
:100D200018C0422F469546954695AC2DBD2DA40F73
:100D3000B11D422F4770062F172F02C0000F111F41
:100D40004A95E2F7402F512F5C91452B4C93622E30
:100D500096CFA096EFE057C2A0E0B0E0E1EBF6E05E
:100D600036C2C82ED92EC62FD72FA42EB52EE82FC7
:100D7000F92F17821682512CEC2DFD2DE380EC2FDC
:100D8000FD2FE3FCC895E3FE00803196802D182FDF
:100D9000CE2FDF2F882309F411C190E018D1892BC1
:100DA00021F08C2D9D2D4BDEE7CF153261F4EC2F19
:100DB000FD2FE3FCC895E3FE00803196102DCE2F69
:100DC000DF2F153291F48C2D9D2D58DB97FDF4C04B
:100DD000412F50E0282F392F33272417350709F4E6
:100DE000CBCF6C2D7D2D66D1E9C01A3251F4E3FCD6
:100DF000C895E3FE00803196102DCE2FDF2F01E045
:100E000001C000E0F12C20ED210F2A3098F402609F
:100E10006F2D70E080E090E040E2E4DDF62EEC2FF4
:100E2000FD2FE3FCC895E3FE00803196102DCE2FF8
:100E3000DF2FE9CF01FF03C0F11003C0BFC0FF24C3
:100E4000FA94183619F01C3671F018C0EC2FFD2FEB
:100E5000E3FCC895E3FE00803196102DCE2FDF2FE6
:100E6000183661F408600460EC2FFD2FE3FCC89590
:100E7000E3FE00803196102DCE2FDF2F112309F4D1
:100E80009DC0612F70E080E090E0A9D0892B09F42B
:100E900095C000FD0AC0EA2DFB2D808091808A2D2F
:100EA0009B2D0296A82EB92E02C0812C912C1E36A5
:100EB00059F4EC2DFD2D4681578160E070E0202F24
:100EC000882D992D82DD58CF1336C1F401FD02C063
:100ED000FF24F3948C2D9D2DD1DA97FD6DC08114E4
:100EE000910441F0E82DF92D8083882D992D0196EC
:100EF000882E992EFA94F110EDCF5AC01B3571F45B
:100F00002C2F3D2F482D592D6F2D8C2D9D2D4FDED3
:100F1000C82FD92F892B09F04BC044C08C2D9D2D93
:100F20008EDD97FD49C01F3689F128F4143661F132
:100F3000193679F12DC0133789F0153729F128C0FA
:100F40008114910441F0E82DF92D6082882D992DAE
:100F50000196882E992EFA94FF2079F08C2D9D2DE4
:100F60008DDA682E792E97FD08C031D0892B41F398
:100F70006C2D7D2D862D972D9DD081149104C1F06F
:100F8000E82DF92D108214C0006203C0006101C079
:100F90000064202F482D592D6F2D8C2D9D2D6BDD3C
:100FA000811106C0EC2DFD2D8381807329F406C0CC
:100FB00000FDE2CE5394E0CE552019F0852D90E04F
:100FC00002C08FEF9FEFCDB7DEB7EFE01CC19111EC
:100FD000EFC0803219F089508550D0F70895E82F7E
:100FE000F92FC8953196061629F00020D1F7802DEB
:100FF000912D089531978E2F9F2F0895E82FF92F67
:10100000C8953196615070400110D0F78095909549
:101010008E0F9F1F0895E82FF92F615070400190A7
:101020000110D8F7809590958E0F9F1F08950F930C
:101030001F93CF93DF93E62FF72F238121FD03C06A
:101040008FEF9FEF32C022FF17C046815781248166
:101050003581421753074CF4A081B1812A2F3B2FD1
:101060002F5F3F4F318320838C93268137812F5F01
:101070003F4F3783268319C0062F172FD92FC82F2C
:10108000E62FF72F0084F185E02D0995892BC1F615
:10109000A02FB12F16968D919C91179701961796B8
:1010A0009C938E9316978C2F9D2FDF91CF911F913C
:1010B0000F910895E62FF72F238120FF12C026FD00
:1010C00010C08F3F3FEF930761F082832F7D206434
:1010D000238326813781215031093783268399273D
:1010E00008958FEF9FEF0895E42FF52FAA2728305A
:1010F00069F1203199F1E8946F936E7F6E5F7F4FB5
:101100008F4F9F4FAF4FB1E041D0B4E03FD0670F5A
:10111000781F891F9A1FA11D680F791F8A1F911DB3
:10112000A11D6A0F711D811D911DA11D23D009F400
:1011300068943F91062E000C3019000C000C3019F9
:10114000305D3193CEF68E2F9F2F0895462F477036
:10115000405D4193B3E00FD0C9F7F5CF462F4F70F4
:10116000405D4A3318F0495D31FD4052419302D051
:10117000A9F7E9CFB4E0A6959795879577956795F8
:10118000BA95C9F70097610571050895262F372F85
:10119000482F592F0A2E069457954795379527952E
:1011A000BA95C9F7620F731F841F951FA01D08957C
:1011B000992788270895002480FD060E660F11F0F8
:1011C0008695D1F7802D08952F923F924F925F928E
:1011D0006F927F928F929F92AF92BF92CF92DF9247
:1011E000EF92FF920F931F93CF93DF93CDB7DEB7AC
:1011F000CA1BDB0B0FB6F894DEBF0FBECDBF099440
:101200002A88398848885F846E847D848C849B8496
:10121000AA84B984C884DF80EE80FD800C811B81A4
:10122000AA81B981CE0FD11D0FB6F894DEBF0FBED3
:08123000CDBFCA2FDB2F08958A
:10123800506C6561736520696E7075742061206EED
:10124800756D6265720A004E6F2073706163652068
:10125800666F72204E6F746520617661696C616299
:101268006C65005469746C653A004E6F74653A0099
:1012780053746F726564204E6F7465204E722E2011
:1012880025640A0057686174206E6F74652073685E
:101298006F756C6420626520646973706C61796530
:1012A800643F0053656C656374696F6E206E6F747C
:1012B80020696E2072616E6765205B302C25642979
:1012C8000A004E6F74652025643A0A25730A0A25B8
:1012D800730A004E6F7465202564206973206E6F51
:1012E80074207772697474656E0A004E6F74652095
:1012F80025643A2025730A0044656C657465204EA0
:101308006F74652025640A0050726573732030205D
:10131800746F20657869740050726573732031208A
:10132800746F2073746F72652061206E6F7465002E
:101338005072657373203220746F20646973706C07
:1013480061792061206E6F74650050726573732037
:101358003320746F206C69737420746865206E6F15
:10136800746573005072657373203420746F206441
:10137800656C6574652061206E6F74650057656CD7
:10138800636F6D6520746F20746865204E6F746597
:081398002D53746F7265000013
:00000001FF
