:1000000010E0A0E6B0E0E4E4FAE003C0C895319661
:100010000D92A238B107D1F720E0A2E8B0E001C00C
:100020001D92A838B207E1F72F923F924F925F924C
:100030006F927F928F929F92AF92BF92CF92DF92F8
:10004000EF92FF920F931F93CF93DF93CDB7DEB75D
:1000500060970FB6F894DEBF0FBECDBF2F87388BE9
:10006000942E852E762E672E582E492E3A2CB98244
:10007000CA82DB82EC82FD820E83212E2A2D3B2D4B
:100080004C2D5D2D6E2D7F2D802F912FA0E0B1D1B5
:1000900009F45EC081E08F83188619861A861B8654
:1000A0001C861D861E86232D217030E040E050E026
:1000B00060E070E080E090E0A0E09BD1C9F0AF8408
:1000C000B888C92CD82CE72CF62C052D142D2F819F
:1000D000388549855A856B857C858D859E8536D189
:1000E0002F83388749875A876B877C878D879E87C0
:1000F000AF84B888C92CD82CE72CF62C052D142DEC
:100100002A2D3B2D492D582D672D762D852D942D8B
:100110001DD12F87388B942E852E762E672E582E44
:10012000492E232D39814A815B816C817D818E81AD
:10013000922D01E042D1322E39834A835B836C8356
:100140007D838E83292EA0E054D109F0ACCF09C065
:1001500081E08F83188619861A861B861C861D8669
:100160001E862F81388549855A856B857C858D85CE
:100170009E8560960FB6F894DEBF0FBECDBFDF91AF
:10018000CF911F910F91FF90EF90DF90CF90BF9094
:10019000AF909F908F907F906F905F904F903F9027
:1001A0002F9008952F923F924F925F926F927F927D
:1001B0008F929F92AF92BF92CF92DF92EF92FF9277
:1001C0000F931F93CF93DF93CDB7DEB762970FB630
:1001D000F894DEBF0FBECDBF0F2EF3E02F2E312CD3
:1001E000F02D0F2EF7E04F2EF02D512C612C712C9D
:1001F000812C912C1A8A198A86E089831A821B82A3
:100200001C821D821E821F82188691E099871A86A1
:100210001B861C861D861E861F86188A1DC021709F
:1002200030E040E050E060E070E080E090E0A0E08E
:10023000E0D091F00E2F29853A854B855C856D8540
:100240007E858F85988982D029873A874B875C87FE
:100250006D877E878F87988BA42CB52CC62CD72CC6
:10026000E82CF92C0A891989242D352D462D572D76
:10027000682D792D802F912F69D0A22EB32EC42EF8
:10028000D52EE62EF72EE82F192F422E532E642E50
:10029000752E862E972E8A8B998B29813A814B81D8
:1002A0005C816D817E818F81988501E086D0298374
:1002B0003A834B835C836D837E838F83988781E051
:1002C000281A310809F0ABCF98899F938F858F93B7
:1002D0009E859F938D858F939C859F938B858F9310
:1002E0009A859F9389858F9380E690E09F938F9363
:1002F0008CD087E48F9385EE8F9388EC8F9380E882
:100300008F938DE690E09F938F937FD00FB6F894F4
:10031000DEBF0FBECDBF80E090E062960FB6F894CE
:10032000DEBF0FBECDBFDF91CF911F910F91FF9028
:10033000EF90DF90CF90BF90AF909F908F907F9085
:100340006F905F904F903F902F900895DF93CF93E1
:100350009F92A0E49A2E0024A02DB12DC02DD12D66
:10036000E02DF12D16950795F794E794D794C7944F
:10037000B794A79448F41068A20FB31FC41FD51FE9
:10038000E61FF71F081E191E220F331F441F551F9B
:10039000661F771F881F991F9A9421F72A2F3B2FDA
:1003A0004C2F5D2F6E2F7F2F802D912D11249F902C
:1003B000CF91DF91089597FB10F8169400080F93E2
:1003C000083098F00850232F342F452F562F672FD1
:1003D000782F892F902DF4CF059497958795779551
:1003E000679557954795379527950A95AAF70F91E1
:1003F00008950024A7FD00942A17300540055005F4
:1004000060057005800590050895A0E0B0E0EAE081
:10041000F2E0F0C24C2F5D2F4B5F5F4FE42FF52FC2
:10042000619171914E2F5F2F809184009091850092
:1004300002D0E2E0FBC2ABE0B0E0E0E2F2E0CAC230
:10044000C82ED92EE62EF72E042F152FE82FF92FC0
:1004500017821682838181FFEFC18C2F9D2F019619
:10046000682E792EEC2DFD2D9381EE2DFF2D93FD21
:10047000C89593FF00803196802DEE2EFF2E8823A5
:1004800009F4D5C1853251F493FDC89593FF0080DE
:100490003196802DEE2EFF2E853229F46C2D7D2D88
:1004A00090E0E8D1DFCF912C212C312CFFE1F31526
:1004B000E0F08B3279F038F4803279F08332A9F4AD
:1004C000232D206110C08D3259F0803371F4232D1B
:1004D000216009C0832D8260382EE32DE46022C0A4
:1004E000F32DF86025C0322E27C037FC31C020ED37
:1004F000280F2A3088F436FE06C0892D6AE061D2C2
:10050000922E980E19C0822D6AE05BD2222E280E00
:10051000832D8062382E10C08E3231F436FC87C1B4
:10052000E32DE0643E2E08C08C3621F4F32DF068F4
:100530003F2E02C0883661F4EE2DFF2D93FDC89545
:1005400093FF00803196802DEE2EFF2E8111AECFCD
:10055000982F9F7D9554933028F40C5F1F4F2FE305
:1005600029830EC0833631F0833781F0833509F05B
:1005700067C027C0E02FF12F808189830E5F1F4F56
:1005800088248394912CA62CB72C17C0402E512E72
:10059000F2E04F0E511CE02FF12FA080B18036FE0B
:1005A00003C0692D70E002C06FEF7FEF8A2D9B2D95
:1005B00055D1882E992E042D152DF32DFF773F2E22
:1005C0001AC0402E512E22E0420E511CE02FF12F76
:1005D000A080B18036FE03C0692D70E002C06FEFCD
:1005E0007FEF8A2D9B2D2DD1882E992EF32DF0682B
:1005F0003F2E042D152D33FC1FC0822D90E0881650
:100600009906D0F46C2D7D2D80E290E033D12A94B0
:10061000F4CFEA2DFB2D37FCC89537FE00803196CC
:10062000802DAE2EBF2E6C2D7D2D90E023D121107C
:100630002A9421E0821A91088114910451F7EDC0A7
:10064000843611F0893649F5E02FF12F37FE07C0C7
:1006500060817181828193810C5F1F4F08C060812E
:100660007181072E000C880B990B0E5F1F4FF32D25
:10067000FF763F2E97FF09C0909580957095619504
:100680007F4F8F4F9F4FF0683F2E2AE030E0462D7E
:10069000572D33D1882E861846C0853731F4232D47
:1006A0002F7EB22E2AE030E025C0932D997FB92EFF
:1006B0008F36C1F018F4883579F0B9C0803719F059
:1006C000883721F0B4C0E92FE061BE2EB4FE0DC022
:1006D000FB2DF460BF2E09C034FE0AC0292F26600E
:1006E000B22E06C028E030E005C020E130E002C0B4
:1006F00020E132E0E02FF12FB7FE07C06081718169
:10070000828193810C5F1F4F06C06081718180E000
:1007100090E00E5F1F4F462D572DEFD0882E861884
:10072000FB2DFF773F2E36FE0DC0232D2E7FA22EF0
:10073000891458F434FE0BC032FC09C0832D8E7E20
:10074000A82E05C0B82CA32C03C0B82C01C0B92C0E
:10075000A4FE10C0EC2FFD2FE80DF11D8081803329
:1007600021F49A2D997EA92E09C0A2FE06C0B39449
:10077000B39404C08A2D867809F0B394A3FC11C009
:10078000A0FE06C0B21488F4280C922C9B180EC050
:10079000B21460F46C2D7D2D80E290E06BD0B394A8
:1007A000F7CFB21418F42B1802C0982C212CA4FEF9
:1007B00011C06C2D7D2D80E390E05CD0A2FE18C0AE
:1007C000A1FC03C088E790E002C088E590E06C2DB2
:1007D0007D2D0DC08A2D867859F0A1FE02C08BE2D6
:1007E00001C080E2A7FC8DE26C2D7D2D90E042D00F
:1007F000891438F46C2D7D2D80E390E03BD09A94E1
:10080000F7CF8A94E62DF72DE80DF11D80816C2D30
:100810007D2D90E02FD08110F4CF222009F422CE3C
:100820006C2D7D2D80E290E025D02A94F6CFEC2D22
:10083000FD2D8681978102C08FEF9FEF2B96E2E11D
:10084000E5C0E82FF92FC89531966150704001102E
:10085000D0F7809590958E0F9F1F0895E82FF92F60
:100860006150704001900110D8F7809590958E0FDF
:100870009F1F08950F931F93CF93DF93E62FF72FBA
:10088000238121FD03C08FEF9FEF32C022FF17C0ED
:100890004681578124813581421753074CF4A0814A
:1008A000B1812A2F3B2F2F5F3F4F318320838C93C1
:1008B000268137812F5F3F4F3783268319C0062F4C
:1008C000172FD92FC82FE62FF72F0084F185E02DA1
:1008D0000995892BC1F6A02FB12F16968D919C9169
:1008E0001797019617969C938E9316978C2F9D2F92
:1008F000DF91CF911F910F910895E42FF52FAA2733
:10090000283069F1203199F1E8946F936E7F6E5F22
:100910007F4F8F4F9F4FAF4FB1E041D0B4E03FD0FA
:10092000670F781F891F9A1FA11D680F791F8A1FE3
:10093000911DA11D6A0F711D811D911DA11D23D047
:1009400009F468943F91062E000C3019000C000C3D
:100950003019305D3193CEF68E2F9F2F0895462F9C
:100960004770405D4193B3E00FD0C9F7F5CF462FF4
:100970004F70405D4A3318F0495D31FD405241935C
:1009800002D0A9F7E9CFB4E0A6959795879577951A
:100990006795BA95C9F70097610571050895262FE7
:1009A000372F482F592F0A2E06945795479537957C
:1009B0002795BA95C9F7620F731F841F951FA01D55
:1009C0000895002480FD060E660F11F08695D1F77C
:1009D000802D08952F923F924F925F926F927F9257
:1009E0008F929F92AF92BF92CF92DF92EF92FF923F
:1009F0000F931F93CF93DF93CDB7DEB7CA1BDB0BEB
:100A00000FB6F894DEBF0FBECDBF09942A8839888F
:100A100048885F846E847D848C849B84AA84B98496
:100A2000C884DF80EE80FD800C811B81AA81B981A2
:100A3000CE0FD11D0FB6F894DEBF0FBECDBFCA2FAB
:040A4000DB2F08950B
:100A4400526573756C743A20256C640A004578709D
:100A5400656374656420526573756C743A20256609
:020A64000A0086
:00000001FF
