:1000000010E0A0E6B0E0EAEEF8E003C0C895319653
:100010000D92A238B107D1F710E0A2E8B0E001C01C
:100020001D92A838B107E1F72F923F924F925F924D
:100030006F927F928F929F92AF92BF92CF92DF92F8
:10004000EF92FF920F931F93CF93DF93CDB7DEB75D
:1000500060970FB6F894DEBF0FBECDBF2F87388BE9
:10006000942E852E762E672E582E492E3A2CB98244
:10007000CA82DB82EC82FD820E83212E2A2D3B2D4B
:100080004C2D5D2D6E2D7F2D802F912FA0E026D140
:1000900009F45EC081E08F83188619861A861B8654
:1000A0001C861D861E86232D217030E040E050E026
:1000B00060E070E080E090E0A0E010D1C9F0AF8493
:1000C000B888C92CD82CE72CF62C052D142D2F819F
:1000D000388549855A856B857C858D859E85ABD015
:1000E0002F83388749875A876B877C878D879E87C0
:1000F000AF84B888C92CD82CE72CF62C052D142DEC
:100100002A2D3B2D492D582D672D762D852D942D8B
:1001100092D02F87388B942E852E762E672E582ED0
:10012000492E232D39814A815B816C817D818E81AD
:10013000922D01E0B7D0322E39834A835B836C83E2
:100140007D838E83292EA0E0C9D009F0ACCF09C0F1
:1001500081E08F83188619861A861B861C861D8669
:100160001E862F81388549855A856B857C858D85CE
:100170009E8560960FB6F894DEBF0FBECDBFDF91AF
:10018000CF911F910F91FF90EF90DF90CF90BF9094
:10019000AF909F908F907F906F905F904F903F9027
:1001A0002F900895AF92BF92CF92DF92EF92FF927D
:1001B0000F931F930F2EF6E0AF2EF02DB12CC12C14
:1001C000D12CE12CF12C00E010E027E030E040E001
:1001D00050E060E070E080E090E026DF9F938F9336
:1001E0007F936F935F934F933F932F9380E690E0BD
:1001F0009F938F937FD087E48F9385EE8F9388ECC6
:100200008F9380E88F938DE690E09F938F9372D0C9
:100210008DB79EB740960FB6F8949EBF0FBE8DBFA8
:1002200080E090E01F910F91FF90EF90DF90CF90D2
:10023000BF90AF900895DF93CF939F92A0E49A2E42
:100240000024A02DB12DC02DD12DE02DF12D16951E
:100250000795F794E794D794C794B794A79448F474
:100260001068A20FB31FC41FD51FE61FF71F081E7B
:10027000191E220F331F441F551F661F771F881F2B
:10028000991F9A9421F72A2F3B2F4C2F5D2F6E2F09
:100290007F2F802D912D11249F90CF91DF91089574
:1002A00097FB10F8169400080F93083098F0085048
:1002B000232F342F452F562F672F782F892F902DDE
:1002C000F4CF0594979587957795679557954795BA
:1002D000379527950A95AAF70F9108950024A7FD51
:1002E00000942A173005400550056005700580050B
:1002F00090050895A0E0B0E0EFE7F1E0CEC2EC2F6A
:10030000FD2F3596619171914E2F5F2F8091840062
:100310009091850002D0E2E0DCC2ACE0B0E0E2E91E
:10032000F1E0ABC2E82EF92EC62ED72E042F152FE2
:10033000E82FF92F17821682838181FFDFC18C2F6E
:100340009D2F0196882E992EEE2DFF2D9381EC2D59
:10035000FD2D93FDC89593FF00803196802DCE2E04
:10036000DF2E882309F4C5C1853251F493FDC89569
:1003700093FF00803196802DCE2EDF2E853229F41A
:100380006E2D7F2D90E0D8D1DFCF512C312C20E085
:100390002032A0F48B3269F030F4803259F083328D
:1003A00069F420612CC08D3239F0803339F421603A
:1003B00026C02260246023C0286021C027FD2BC0F6
:1003C00030ED380F3A3078F426FF06C0852D6AE00C
:1003D0004BD2582E530E13C0832D6AE045D2382ECF
:1003E000330E20620CC08E3221F426FD82C12064BF
:1003F00006C08C3611F4206802C0883661F4EC2DFA
:10040000FD2D93FDC89593FF00803196802DCE2E53
:10041000DF2E8111BDCF982F9F7D9554933028F406
:100420000C5F1F4FFFE3F9830EC0833631F0833733
:1004300081F0833509F069C028C0E02FF12F808159
:1004400089830E5F1F4F44244394512CA82CB92C50
:1004500019C0602E712EF2E06F0E711CE02FF12F8B
:10046000A080B18026FF03C0652D70E002C06FEF51
:100470007FEF8A2D9B2D2C8753D1482E592E062D88
:10048000172D2C852F77222E1BC0602E712EF2E0A7
:100490006F0E711CE02FF12FA080B18026FF03C0EA
:1004A000652D70E002C06FEF7FEF8A2D9B2D2C87AA
:1004B0002AD1482E592E2C852068222E062D172D44
:1004C00023FC1FC0832D90E048165906D0F46E2DF2
:1004D0007F2D80E290E030D13A94F4CFEA2DFB2DCD
:1004E00027FCC89527FE00803196802DAE2EBF2EAA
:1004F0006E2D7F2D90E020D131103A94F1E04F1A0B
:1005000051084114510451F7EAC0843611F089367C
:1005100041F5E02FF12F27FF07C0608171818281B3
:1005200093810C5F1F4F08C060817181882777FD20
:100530008095982F0E5F1F4F2F76B22E97FF09C020
:1005400090958095709561957F4F8F4F9F4F206854
:10055000B22E2AE030E0482D592D22D1A82EA8181D
:1005600045C0853729F42F7EB22E2AE030E025C021
:10057000F22FF97FBF2E8F36C1F018F4883579F04D
:10058000B8C0803719F0883721F0B3C02F2F206111
:10059000B22EB4FE0DC08B2D8460B82E09C024FF8E
:1005A0000AC09F2F9660B92E06C028E030E005C033
:1005B00020E130E002C020E132E0E02FF12FB7FE71
:1005C00007C060817181828193810C5F1F4F06C0DB
:1005D0006081718180E090E00E5F1F4F482D592DA2
:1005E000DFD0A82EA818FB2DFF77BF2EB6FE0BC0BC
:1005F0002B2D2E7FA51450F4B4FE0AC0B2FC08C007
:100600002B2D2E7E05C07A2C2B2D03C07A2C01C0F9
:10061000752C24FF0EC0EC2FFD2FEA0DF11D8081FB
:10062000803311F4297E09C022FF06C073947394AD
:1006300004C0822F867809F0739423FD13C020FF35
:1006400006C05A2C731418F4530C5718732C7314D7
:1006500068F46E2D7F2D80E290E02C876DD073942E
:100660002C85F5CF731410F4371801C0312C24FFFA
:1006700013C06E2D7F2D80E390E02C875DD02C85FC
:1006800022FF18C021FF03C088E590E002C088E780
:1006900090E06E2D7F2D0DC0822F867859F021FDC0
:1006A00002C080E201C08BE227FD8DE26E2D7F2D1E
:1006B00090E042D0A51438F46E2D7F2D80E390E0B9
:1006C0003BD05A94F7CFAA94E82DF92DEA0DF11DED
:1006D00080816E2D7F2D90E02FD0A110F4CF33209C
:1006E00009F432CE6E2D7F2D80E290E025D03A9431
:1006F000F6CFEE2DFF2D8681978102C08FEF9FEF01
:100700002C96E2E1D6C0E82FF92FC89531966150BA
:1007100070400110D0F7809590958E0F9F1F08951F
:10072000E82FF92F6150704001900110D8F78095A3
:1007300090958E0F9F1F08950F931F93CF93DF9374
:10074000182F092FC62FD72F8B8181FD03C08FEF64
:100750009FEF21C082FF11C04E815F812C813D81BE
:100760004217530784F4E881F9812E2F3F2F2F5F22
:100770003F4F39832883108306C0E885F985812F90
:100780000995892B21F72E813F812F5F3F4F3F83B2
:100790002E83812F902FDF91CF911F910F9108957C
:1007A000E42FF52FAA27283069F1203199F1E89438
:1007B0006F936E7F6E5F7F4F8F4F9F4FAF4FB1E054
:1007C00041D0B4E03FD0670F781F891F9A1FA11D49
:1007D000680F791F8A1F911DA11D6A0F711D811D50
:1007E000911DA11D23D009F468943F91062E000CA1
:1007F0003019000C000C3019305D3193CEF68E2F7D
:100800009F2F0895462F4770405D4193B3E00FD06E
:10081000C9F7F5CF462F4F70405D4A3318F0495D58
:1008200031FD4052419302D0A9F7E9CFB4E0A6953B
:100830009795879577956795BA95C9F7009761055C
:1008400071050895262F372F482F592F0A2E069409
:100850005795479537952795BA95C9F7620F731F36
:10086000841F951FA01D0895002480FD060E660FAD
:1008700011F08695D1F7802D08952F923F924F92D7
:100880005F926F927F928F929F92AF92BF92CF9220
:10089000DF92EF92FF920F931F93CF93DF93CDB729
:1008A000DEB7CA1BDB0B0FB6F894DEBF0FBECDBFA1
:1008B00009942A88398848885F846E847D848C8472
:1008C0009B84AA84B984C884DF80EE80FD800C817B
:1008D0001B81AA81B981CE0FD11D0FB6F894DEBF5E
:0A08E0000FBECDBFCA2FDB2F089515
:1008EA00526573756C743A20256C640A00457870F9
:1008FA00656374656420526573756C743A20256665
:02090A000A00E1
:00000001FF
