:100000006364696E6F70737578585B0010E0A0E6EA
:10001000B0E0E0EAFEE003C0C89531960D92A23848
:10002000B107D1F720E0A2E8B0E001C01D92A838E6
:10003000B207E1F70F931F93CF93DF9300D0CDB7B3
:10004000DEB78C2F9D2F01969F938F9380E690E0D3
:100050009F938F9393D00F900F900F900F900197D5
:1000600049F5E981FA810E2F1F2FFF2314F40F5F4A
:100070001F4F1595079502301105FCF08E2F9F2F0D
:1000800081709078992324F401978E6F9F6F019669
:10009000892B09F122E030E007C08E2F9F2F622FBD
:1000A000732F2DD0892BB9F02F5F3F4F0217130705
:1000B000A4F703C08FEF9FEF1BC0FF93EF9383E67E
:1000C00090E09F938F9344D00F900F900F900F90DC
:1000D00080E090E00DC0FF93EF9380E790E09F9366
:1000E0008F9336D00F900F900F900F9080E090E09C
:1000F0000F900F90DF91CF911F910F91089597FB73
:10010000072E16F4009406D077FD08D00BD007FC1C
:1001100005D03EF4909581959F4F08957095619517
:100120007F4F0895AA1BBB1B51E107C0AA1FBB1F2D
:10013000A617B70710F0A61BB70B881F991F5A9573
:10014000A9F780959095682F792F8A2F9B2F089576
:10015000A0E0B0E0EDEAF0E07BC64C2F5D2F4B5FF6
:100160005F4FE42FF52F619171914E2F5F2F80919A
:1001700084009091850018D0E2E086C6A0E0B0E04F
:10018000E3ECF0E065C64C2F5D2F4B5F5F4FE42F33
:10019000F52F619171914E2F5F2F80918200909188
:1001A0008300CFD3E2E070C6ABE0B0E0E9EDF0E071
:1001B0003FC6C82ED92EE62EF72E042F152FE82F76
:1001C000F92F17821682838181FFEFC18C2F9D2F1B
:1001D0000196682E792EEC2DFD2D9381EE2DFF2DAD
:1001E00093FDC89593FF00803196802DEE2EFF2E53
:1001F000882309F4D5C1853251F493FDC89593FF46
:1002000000803196802DEE2EFF2E853229F46C2D44
:100210007D2D90E040D5DFCF912C212C312CFFE1BA
:10022000F315E0F08B3279F038F4803279F08332D4
:10023000A9F4232D206110C08D3259F0803371F460
:10024000232D216009C0832D8260382EE32DE460C8
:1002500022C0F32DF86025C0322E27C037FC31C0F4
:1002600020ED280F2A3088F436FE06C0892D6AE07A
:10027000D6D5922E980E19C0822D6AE0D0D5222EA6
:10028000280E832D8062382E10C08E3231F436FC59
:1002900087C1E32DE0643E2E08C08C3621F4F32D97
:1002A000F0683F2E02C0883661F4EE2DFF2D93FDDD
:1002B000C89593FF00803196802DEE2EFF2E811180
:1002C000AECF982F9F7D9554933028F40C5F1F4F2D
:1002D0002FE329830EC0833631F0833781F08335D5
:1002E00009F067C027C0E02FF12F808189830E5F5E
:1002F0001F4F88248394912CA62CB72C17C0402E16
:10030000512EF2E04F0E511CE02FF12FA080B18052
:1003100036FE03C0692D70E002C06FEF7FEF8A2DBB
:100320009B2D6ED4882E992E042D152DF32DFF773D
:100330003F2E1AC0402E512E22E0420E511CE02FBB
:10034000F12FA080B18036FE03C0692D70E002C09D
:100350006FEF7FEF8A2D9B2D46D4882E992EF32D9B
:10036000F0683F2E042D152D33FC1FC0822D90E028
:1003700088169906D0F46C2D7D2D80E290E08BD408
:100380002A94F4CFEA2DFB2D37FCC89537FE008068
:100390003196802DAE2EBF2E6C2D7D2D90E07BD41E
:1003A00021102A9421E0821A91088114910451F7B6
:1003B000EDC0843611F0893649F5E02FF12F37FE74
:1003C00007C060817181828193810C5F1F4F08C0DB
:1003D00060817181072E000C880B990B0E5F1F4FF7
:1003E000F32DFF763F2E97FF09C09095809570956D
:1003F00061957F4F8F4F9F4FF0683F2E2AE030E08E
:10040000462D572DA5D4882E861846C0853731F441
:10041000232D2F7EB22E2AE030E025C0932D997F28
:10042000B92E8F36C1F018F4883579F0B9C080370D
:1004300019F0883721F0B4C0E92FE061BE2EB4FE78
:100440000DC0FB2DF460BF2E09C034FE0AC0292F59
:100450002660B22E06C028E030E005C020E130E082
:1004600002C020E132E0E02FF12FB7FE07C060812B
:100470007181828193810C5F1F4F06C06081718101
:1004800080E090E00E5F1F4F462D572D61D4882EDF
:100490008618FB2DFF773F2E36FE0DC0232D2E7FB5
:1004A000A22E891458F434FE0BC032FC09C0832DEF
:1004B0008E7EA82E05C0B82CA32C03C0B82C01C07A
:1004C000B92CA4FE10C0EC2FFD2FE80DF11D80818A
:1004D000803321F49A2D997EA92E09C0A2FE06C070
:1004E000B394B39404C08A2D867809F0B394A3FC26
:1004F00011C0A0FE06C0B21488F4280C922C9B18E0
:100500000EC0B21460F46C2D7D2D80E290E0C3D358
:10051000B394F7CFB21418F42B1802C0982C212CE6
:10052000A4FE11C06C2D7D2D80E390E0B4D3A2FE1B
:1005300018C0A1FC03C088E790E002C088E590E005
:100540006C2D7D2D0DC08A2D867859F0A1FE02C03C
:100550008BE201C080E2A7FC8DE26C2D7D2D90E046
:100560009AD3891438F46C2D7D2D80E390E093D3D9
:100570009A94F7CF8A94E62DF72DE80DF11D80812E
:100580006C2D7D2D90E087D38110F4CF222009F4CB
:1005900022CE6C2D7D2D80E290E07DD32A94F6CF83
:1005A000EC2DFD2D8681978102C08FEF9FEF2B965A
:1005B000E2E15AC420FD0AC0E82FF92F23FD05C04F
:1005C00022FF02C07383628351834083089544FDF8
:1005D0001DC046FD1DC0462F572F682F792FA42F11
:1005E000B52FE62FF72FAA0FBB1FEE1FFF1F10948A
:1005F000D1F74A0F5B1F6E1F7F1F972F862F752F16
:10060000642F660F771F881F991F09C033E001C050
:1006100034E0660F771F881F991F3150D1F7620FA2
:10062000711D811D911D08950F931F93CF93DF932B
:10063000082F192F802F912FEFD2C82FD92F97FD78
:1006400008C0BAD2892BB1F7602F712F8C2F9D2F44
:1006500065D38C2F9D2FDF91CF911F910F9108951E
:100660008F929F92AF92BF92EF92FF920F931F9340
:10067000CF93DF93082F192FD62FE42EF52EB22E0D
:10068000CBD2282F392F33272B32310531F02D32A1
:10069000310561F48B2D8068B82ED15011F480E0C3
:1006A00070C0802F912FB8D297FDF9CFCB2DCD7F81
:1006B0002B2D207311F5803301F5AA24AA94AD0ED9
:1006C00009F448C0802F912FA7D297FD43C0282F4F
:1006D000392F2F7D33272835310549F4C264D25094
:1006E000C9F1802F912F98D297FF07C033C0B6FE73
:1006F00002C0C26001C0C261DA2D812C912CA12CF4
:10070000B12C20ED280F283080F0C4FF04C0602FEA
:10071000712F04D31CC02A3040F0C6FFF8CF2F7DC4
:100720003FEE320F363098F727504C2F9B2D8A2DF5
:10073000792D682D4CDF862E972EA82EB92EC260FB
:10074000D15061F0802F912F67D297FFDACFC1FD92
:1007500005C0A5CF812C912CA12CB12CC7FF08C0BE
:10076000B094A09490948094811C911CA11CB11C05
:100770002C2F7B2D6A2D592D482D8E2D9F2D1ADF64
:1007800081E0DF91CF911F910F91FF90EF90BF908B
:10079000AF909F908F900895A0E2B0E0E1EDF3E07C
:1007A0004AC3A82EB92E962EE42EF52EE22FF32F53
:1007B0000C2F1D2F0F5F1F4FC02ED12E80E2A02FB8
:1007C000B12F1D928A95E9F7AA2DBB2D13968C9017
:1007D00080E090E0612C712C30E061E070E083FCFF
:1007E000C89583FE00803196202D0E2F1F2F522E8C
:1007F000211103C080E090E0A1C02E3511F40097D4
:1008000069F1432F50E0481759073CF42D3571F139
:100810002D3219F4772021F103C0772009F476C036
:10082000452D469546954695AC2DBD2DA40FB11D81
:10083000452D4770062F172F02C0000F111F4A9534
:10084000E2F7402F512F5C91452B4C93651459F0E2
:10085000561410F45394E4CF5A94E2CF31E004C01C
:100860007724739401C0712C0196B9CF772019F0C9
:100870008E8180628E83311103C0882483941CC0D2
:10088000EC2DFD2D2C2F3D2F2F5D3F4F808180952E
:1008900081932E173F07D1F7F0CFE114F10441F017
:1008A000AE2DBF2D8C93EE2DFF2D3196EE2EFF2E0B
:1008B0009A94812C992009F18A2D9B2DADD197FD19
:1008C0001AC0E82FF92FFF2723E0F595E7952A9521
:1008D000E1F7EC0DFD1D208130E0482F592F4770C6
:1008E000552702C0359527954A95E2F720FDD5CFCB
:1008F0006A2D7B2D13D281107DCFE114F10419F004
:10090000AE2DBF2D1C92802F912F18C0422F4695DF
:1009100046954695AC2DBD2DA40FB11D422F4770B5
:10092000062F172F02C0000F111F4A95E2F7402F24
:10093000512F5C91452B4C93622E96CFA096EFE001
:1009400096C2A0E0B0E0E6EAF4E075C2C82ED92E67
:10095000C62FD72FA42EB52EE82FF92F1782168277
:10096000512CEC2DFD2DE380EC2FFD2FE3FCC895E1
:10097000E3FE00803196802D182FCE2FDF2F8823A5
:1009800009F411C190E018D1892B21F08C2D9D2DF7
:100990004BDEE7CF153261F4EC2FFD2FE3FCC89559
:1009A000E3FE00803196102DCE2FDF2F153291F40B
:1009B0008C2D9D2D31D197FDF4C0412F50E0282F73
:1009C000392F33272417350709F4CBCF6C2D7D2D14
:1009D000A5D1E9C01A3251F4E3FCC895E3FE0080CA
:1009E0003196102DCE2FDF2F01E001C000E0F12C59
:1009F00020ED210F2A3098F402606F2D70E080E026
:100A000090E040E2E4DDF62EEC2FFD2FE3FCC895EC
:100A1000E3FE00803196102DCE2FDF2FE9CF01FFAE
:100A200003C0F11003C0BFC0FF24FA94183619F0B8
:100A30001C3671F018C0EC2FFD2FE3FCC895E3FEC7
:100A400000803196102DCE2FDF2F183661F408600C
:100A50000460EC2FFD2FE3FCC895E3FE0080319687
:100A6000102DCE2FDF2F112309F49DC0612F70E0D0
:100A700080E090E0A9D0892B09F495C000FD0AC060
:100A8000EA2DFB2D808091808A2D9B2D0296A82E29
:100A9000B92E02C0812C912C1E3659F4EC2DFD2D5F
:100AA0004681578160E070E0202F882D992D82DDEE
:100AB00058CF1336C1F401FD02C0FF24F3948C2DEE
:100AC0009D2DAAD097FD6DC08114910441F0E82DB1
:100AD000F92D8083882D992D0196882E992EFA94D0
:100AE000F110EDCF5AC01B3571F42C2F3D2F482D3E
:100AF000592D6F2D8C2D9D2D4FDEC82FD92F892B71
:100B000009F04BC044C08C2D9D2D8EDD97FD49C052
:100B10001F3689F128F4143661F1193679F12DC0A8
:100B2000133789F0153729F128C08114910441F059
:100B3000E82DF92D6082882D992D0196882E992E09
:100B4000FA94FF2079F08C2D9D2D66D0682E792E99
:100B500097FD08C031D0892B41F36C2D7D2D862D5A
:100B6000972DDCD081149104C1F0E82DF92D10826D
:100B700014C0006203C0006101C00064202F482D32
:100B8000592D6F2D8C2D9D2D6BDD811106C0EC2D07
:100B9000FD2D8381807329F406C000FDE2CE5394BD
:100BA000E0CE552019F0852D90E002C08FEF9FEF29
:100BB000CDB7DEB7EFE05BC191112EC1803219F0E5
:100BC00089508550D0F70895E82FF92FC8953196B0
:100BD000061629F00020D1F7802D912D0895319728
:100BE0008E2F9F2F0895E82FF92FC89531966150C9
:100BF00070400110D0F7809590958E0F9F1F08953B
:100C0000E82FF92F6150704001900110D8F78095BE
:100C100090958E0F9F1F0895CF93DF93C82FD92FE4
:100C20002B8120FF33C026FF0AC02F7B2B838E81B0
:100C30009F8101969F838E838A8190E029C022FF45
:100C40000FC0E881F9818081082E000C990B009774
:100C500019F420622B831AC03196F983E8830EC001
:100C6000EA85FB85099597FF09C02B81019611F054
:100C700080E201C080E1822B8B8308C02E813F81FE
:100C80002F5F3F4F3F832E83992702C08FEF9FEF47
:100C9000DF91CF9108950F931F93CF93DF93E62FAA
:100CA000F72F238121FD03C08FEF9FEF32C022FF7A
:100CB00017C04681578124813581421753074CF470
:100CC000A081B1812A2F3B2F2F5F3F4F318320839B
:100CD0008C93268137812F5F3F4F3783268319C03E
:100CE000062F172FD92FC82FE62FF72F0084F18555
:100CF000E02D0995892BC1F6A02FB12F16968D9165
:100D00009C911797019617969C938E9316978C2F0C
:100D10009D2FDF91CF911F910F910895E62FF72F0F
:100D2000238120FF12C026FD10C08F3F3FEF9307A5
:100D300061F082832F7D20642383268137812150B7
:100D4000310937832683992708958FEF9FEF089500
:100D5000E42FF52FAA27283069F1203199F1E89482
:100D60006F936E7F6E5F7F4F8F4F9F4FAF4FB1E09E
:100D700041D0B4E03FD0670F781F891F9A1FA11D93
:100D8000680F791F8A1F911DA11D6A0F711D811D9A
:100D9000911DA11D23D009F468943F91062E000CEB
:100DA0003019000C000C3019305D3193CEF68E2FC7
:100DB0009F2F0895462F4770405D4193B3E00FD0B9
:100DC000C9F7F5CF462F4F70405D4A3318F0495DA3
:100DD00031FD4052419302D0A9F7E9CFB4E0A69586
:100DE0009795879577956795BA95C9F700976105A7
:100DF00071050895262F372F482F592F0A2E069454
:100E00005795479537952795BA95C9F7620F731F80
:100E1000841F951FA01D08959927882708950024F1
:100E200080FD060E660F11F08695D1F7802D08958E
:100E30002F923F924F925F926F927F928F929F92EA
:100E4000AF92BF92CF92DF92EF92FF920F931F93D8
:100E5000CF93DF93CDB7DEB7CA1BDB0B0FB6F89489
:100E6000DEBF0FBECDBF09942A88398848885F84C9
:100E70006E847D848C849B84AA84B984C884DF803A
:100E8000EE80FD800C811B81AA81B981CE0FD11D1E
:100E90000FB6F894DEBF0FBECDBFCA2FDB2F08956B
:100EA0002564002564206973207072696D652E00C9
:100EB0002564206973206E6F74207072696D652ED1
:020EC000000030
:00000001FF
