:100000006364696E6F70737578585B0010E0A0E6EA
:10001000B0E0EAE5FEE003C0C89531960D92A23843
:10002000B107D1F710E0A2E8B0E001C01D92A838F6
:10003000B107E1F70F931F93CF93DF9300D0CDB7B4
:10004000DEB78C2F9D2F01969F938F9380E690E0D3
:100050009F938F9390D00F900F900F900F900197D8
:1000600049F5E981FA810E2F1F2FFF2314F40F5F4A
:100070001F4F1595079502301105FCF08E2F9F2F0D
:1000800081709078992324F401978E6F9F6F019669
:10009000892B09F122E030E007C08E2F9F2F622FBD
:1000A000732F2DD0892BB9F02F5F3F4F0217130705
:1000B000A4F703C08FEF9FEF1BC0FF93EF9383E67E
:1000C00090E09F938F9344D00F900F900F900F90DC
:1000D00080E090E00DC0FF93EF9380E790E09F9366
:1000E0008F9336D00F900F900F900F9080E090E09C
:1000F0000F900F90DF91CF911F910F91089597FB73
:10010000072E16F4009406D077FD08D00BD007FC1C
:1001100005D03EF4909581959F4F08957095619517
:100120007F4F0895AA1BBB1B51E107C0AA1FBB1F2D
:10013000A617B70710F0A61BB70B881F991F5A9573
:10014000A9F780959095682F792F8A2F9B2F089576
:10015000A0E0B0E0EDEAF0E058C6EC2FFD2F3596B8
:10016000619171914E2F5F2F809184009091850055
:1001700015D0E2E066C6A0E0B0E0E0ECF0E045C6F5
:10018000EC2FFD2F3596619171914E2F5F2F80914D
:100190008200909183009BD3E2E053C6ACE0B0E0D4
:1001A000E3EDF0E022C6E82EF92EC62ED72E042F5E
:1001B000152FE82FF92F17821682838181FFDFC167
:1001C0008C2F9D2F0196882E992EEE2DFF2D938139
:1001D000EC2DFD2D93FDC89593FF00803196802D69
:1001E000CE2EDF2E882309F4C5C1853251F493FD4C
:1001F000C89593FF00803196802DCE2EDF2E85325C
:1002000029F46E2D7F2D90E032D5DFCF512C312C8B
:1002100020E02032A0F48B3269F030F4803259F0C3
:10022000833269F420612CC08D3239F0803339F487
:10023000216026C02260246023C0286021C027FDE1
:100240002BC030ED380F3A3078F426FF06C0852DEC
:100250006AE0C2D5582E530E13C0832D6AE0BCD578
:10026000382E330E20620CC08E3221F426FD82C15E
:10027000206406C08C3611F4206802C0883661F410
:10028000EC2DFD2D93FDC89593FF00803196802DB8
:10029000CE2EDF2E8111BDCF982F9F7D95549330A8
:1002A00028F40C5F1F4FFFE3F9830EC0833631F053
:1002B000833781F0833509F069C028C0E02FF12F22
:1002C000808189830E5F1F4F44244394512CA82CB6
:1002D000B92C19C0602E712EF2E06F0E711CE02F48
:1002E000F12FA080B18026FF03C0652D70E002C011
:1002F0006FEF7FEF8A2D9B2D2C876ED4482E592EC1
:10030000062D172D2C852F77222E1BC0602E712EC7
:10031000F2E06F0E711CE02FF12FA080B18026FF5C
:1003200003C0652D70E002C06FEF7FEF8A2D9B2D1B
:100330002C8745D4482E592E2C852068222E062D38
:10034000172D23FC1FC0832D90E048165906D0F4CA
:100350006E2D7F2D80E290E08AD43A94F4CFEA2D7E
:10036000FB2D27FCC89527FE00803196802DAE2EF0
:10037000BF2E6E2D7F2D90E07AD431103A94F1E0AB
:100380004F1A51084114510451F7EAC0843611F054
:10039000893641F5E02FF12F27FF07C06081718179
:1003A000828193810C5F1F4F08C060817181882713
:1003B00077FD8095982F0E5F1F4F2F76B22E97FFF7
:1003C00009C090958095709561957F4F8F4F9F4F95
:1003D0002068B22E2AE030E0482D592D96D4A82E60
:1003E000A81845C0853729F42F7EB22E2AE030E0C8
:1003F00025C0F22FF97FBF2E8F36C1F018F4883553
:1004000079F0B8C0803719F0883721F0B3C02F2FAA
:100410002061B22EB4FE0DC08B2D8460B82E09C0B1
:1004200024FF0AC09F2F9660B92E06C028E030E056
:1004300005C020E130E002C020E132E0E02FF12FE2
:10044000B7FE07C060817181828193810C5F1F4F6D
:1004500006C06081718180E090E00E5F1F4F482DE3
:10046000592D53D4A82EA818FB2DFF77BF2EB6FE0A
:100470000BC02B2D2E7FA51450F4B4FE0AC0B2FC85
:1004800008C02B2D2E7E05C07A2C2B2D03C07A2C74
:1004900001C0752C24FF0EC0EC2FFD2FEA0DF11DBD
:1004A0008081803311F4297E09C022FF06C0739435
:1004B000739404C0822F867809F0739423FD13C0CF
:1004C00020FF06C05A2C731418F4530C5718732CC1
:1004D000731468F46E2D7F2D80E290E02C87C7D3D3
:1004E00073942C85F5CF731410F4371801C0312C98
:1004F00024FF13C06E2D7F2D80E390E02C87B7D3AF
:100500002C8522FF18C021FF03C088E590E002C0BF
:1005100088E790E06E2D7F2D0DC0822F867859F0F0
:1005200021FD02C080E201C08BE227FD8DE26E2D2D
:100530007F2D90E09CD3A51438F46E2D7F2D80E3A1
:1005400090E095D35A94F7CFAA94E82DF92DEA0DAF
:10055000F11D80816E2D7F2D90E089D3A110F4CF05
:10056000332009F432CE6E2D7F2D80E290E07FD3D0
:100570003A94F6CFEE2DFF2D8681978102C08FEF42
:100580009FEF2C96E2E14DC420FD0AC0E82FF92F21
:1005900023FD05C022FF02C0738362835183408321
:1005A000089544FD12C046FD12C0A62FB72FE82FB4
:1005B000F92FAA0FBB1FEE1FFF1F1094D1F76A0F70
:1005C0007B1F8E1F9F1F31E003C033E001C034E06A
:1005D000660F771F881F991F3150D1F7620F711D69
:1005E000811D911D08950F931F93CF93DF93082FC3
:1005F000192F802F912FFCD2C82FD92F97FD08C01B
:10060000C7D2892BB1F7602F712F8C2F9D2F63D309
:100610008C2F9D2FDF91CF911F910F9108958F9275
:100620009F92AF92CF92DF92EF92FF920F931F9320
:10063000CF93DF93C82FD92FA62E842E952E022F6D
:10064000D7D2482F592F55274B32510521F04D3223
:10065000510551F40068AA9411F480E06EC08C2F0B
:100660009D2FC6D297FDF9CF102F1D7F302F3073ED
:1006700001F58033F1F4FF24FA94FA0C09F446C032
:100680008C2F9D2FB5D297FD41C0382F3F7D383537
:1006900051F41264AA94AA94C9F18C2F9D2FA8D268
:1006A00097FF07C033C006FF02C0126001C012618D
:1006B000AF2CC12CD12CE12CF12C20ED280F2830AF
:1006C00080F014FF04C06C2F7D2F05D31CC02A308E
:1006D00040F016FFF8CF2F7D3FEE320F363098F7FF
:1006E0002750412F9F2D8E2D7D2D6C2D5ADFC62E2C
:1006F000D72EE82EF92E1260AA9461F08C2F9D2F30
:1007000077D297FFDACF11FD05C0A7CFC12CD12C2E
:10071000E12CF12C17FF08C0F094E094D094C09421
:10072000C11CD11CE11CF11C212F7F2D6E2D5D2DD4
:100730004C2D882D992D28DF81E0DF91CF911F91DD
:100740000F91FF90EF90DF90CF90AF909F908F90A0
:100750000895A1E2B0E0EEEAF3E04CC3A82EB92E72
:10076000E42EF52E0C2F1D2F0F5F1F4FC02ED12E04
:1007700080E2A02FB12F1D928A95E9F7EA2DFB2D7B
:10078000738040E050E0812CB0E0912C81E090E05B
:10079000E22FF32F73FCC89573FE00803196A02DD5
:1007A0000E2F1F2F7A2F2E2F3F2FA11103C080E075
:1007B00090E08AC0AE3519F44115510579F1E92D63
:1007C000F0E0E417F5073CF4AD3589F1AD3219F4EA
:1007D000BB2339F103C0B11101C08A2EE72FE69582
:1007E000E695E6950C2D1D2D0E0F111DE02FF12F16
:1007F000A72FA770082F192F02C0000F111FAA954D
:10080000E2F7A02FB12FB081BA2BB083781559F041
:10081000781510F47F5FE2CF7150E0CF9924939464
:1008200003C0B1E001C0B0E04F5F5F4FB1CFBB2369
:1008300019F08E8180628E83911003C09924939465
:100840001AC0EC2DFD2D8C2F9D2F81962081209597
:100850002193E817F907D1F7F1CFE114F10441F042
:10086000AE2DBF2D8C93EE2DFF2D3196EE2EFF2E4B
:10087000615011F1912C8A2D9B2D69A3B9D169A1E9
:1008800097FD18C0282F269526952695EC2DFD2D31
:10089000E20FF11D208130E0482F592F4770552776
:1008A00002C0359527954A95E2F720FDD6CF6A2DEF
:1008B0007B2D11D291107BCFE114F10419F0AE2DF4
:1008C000BF2D1C92802F912FA196EDE0AFC24F92C9
:1008D0005F927F928F929F92AF92BF92CF92DF9260
:1008E000EF92FF920F931F93CF93DF931F92CDB799
:1008F000DEB7082F192F462E572EE42EF52EE82F9F
:10090000F92F17821682A12CE02FF12FD380E42D2E
:10091000F52DD3FCC895D3FE00803196802D382F5D
:100920004E2E5F2E882309F41DC190E0398330D10B
:100930003981892B21F0802F912F55DEE5CF35327B
:1009400061F4E42DF52DD3FCC895D3FE00803196DB
:10095000302D4E2E5F2E353269F4802F912F398342
:1009600047D1398197FDFCC0381771F2602F712F84
:10097000B2D1F8C03A3259F4D3FCC895D3FE008006
:100980003196302D4E2E5F2EBB24B39401C0B12C76
:10099000712C20ED230F2A30A8F4FB2DF260BF2E1E
:1009A000672D70E080E090E040E2FBDD762EE42DE4
:1009B000F52DD3FCC895D3FE00803196302D4E2EF8
:1009C0005F2EE7CFB1FE03C0711003C0CBC0772408
:1009D0007A94383619F03C3681F01CC0E42DF52DA0
:1009E000D3FCC895D3FE00803196302D4E2E5F2E5D
:1009F000383681F4FB2DF860BF2E8B2D8460B82E25
:100A0000E42DF52DD3FCC895D3FE00803196302D12
:100A10004E2E5F2E332309F4A5C0632F70E080E0D3
:100A200090E03983BDD03981892B09F49BC0B0FC9B
:100A30000AC0EE2DFF2DC080D1808E2D9F2D0296F5
:100A4000E82EF92E02C0C12CD12C3E3659F4E02FED
:100A5000F12F4681578160E070E02B2D8C2D9D2D6C
:100A600093DD52CF3336B9F4B1FC02C077247394CE
:100A7000802F912FBDD097FD73C0C114D10441F0D8
:100A8000EC2DFD2D80838C2D9D2D0196C82ED92E09
:100A90007A9471F761C03B3571F4242D352D4C2DBE
:100AA0005D2D672D802F912F54DE482E592E0097F3
:100AB00009F052C04BC0802F912F398394DD3981CA
:100AC00097FD4EC03F3691F128F4343659F139364E
:100AD000A1F130C0333781F0353721F12BC0C1147B
:100AE000D10441F0EC2DFD2D80828C2D9D2D0196A1
:100AF000C82ED92E7A9479F0802F912F79D0882E14
:100B0000992E97FD08C044D0892B49F3602F712F8F
:100B1000882D992DE0D0C114D104F1F0EC2DFD2DDC
:100B200010821AC0FB2DF062BF2E07C08B2D806192
:100B3000B82E03C09B2D9064B92E2B2D4C2D5D2D0E
:100B4000672D802F912F6BDD811106C0E02FF12FD3
:100B50008381807329F406C0B0FCD6CEA394D4CE92
:100B6000AA2019F08A2D90E002C08FEF9FEF0F901E
:100B7000DF91CF911F910F91FF90EF90DF90CF9079
:100B8000BF90AF909F908F907F905F904F9008950F
:100B900091111FC1803219F089508550D0F7089506
:100BA000E82FF92FC8953196061629F00020D1F7C5
:100BB000802D912D089531978E2F9F2F0895E82F26
:100BC000F92FC8953196615070400110D0F780958B
:100BD00090958E0F9F1F0895E82FF92F6150704058
:100BE00001900110D8F7809590958E0F9F1F089562
:100BF000CF93DF93C82FD92F2B8120FF33C026FF3F
:100C00000AC02F7B2B838E819F8101969F838E83C9
:100C10008A8190E029C022FF0FC0E881F98180819C
:100C2000992787FD9095009719F420622B831AC0AD
:100C30003196F983E8830EC0EA85FB85099597FF15
:100C400009C02B81019611F480E101C080E2822B62
:100C50008B8308C02E813F812F5F3F4F3F832E83C0
:100C6000992702C08FEF9FEFDF91CF9108950F93E7
:100C70001F93CF93DF93182F092FC62FD72F8B8168
:100C800081FD03C08FEF9FEF21C082FF11C04E8115
:100C90005F812C813D814217530784F4E881F981FB
:100CA0002E2F3F2F2F5F3F4F39832883108306C09D
:100CB000E885F985812F0995892B21F72E813F81C0
:100CC0002F5F3F4F3F832E83812F902FDF91CF9156
:100CD0001F910F910895E62FF72F238120FF12C057
:100CE00026FD10C08F3F3FEF930761F082832F7D79
:100CF000206423832681378121503109378326835D
:100D0000992708958FEF9FEF0895E42FF52FAA27D5
:100D1000283069F1203199F1E8946F936E7F6E5F0E
:100D20007F4F8F4F9F4FAF4FB1E041D0B4E03FD0E6
:100D3000670F781F891F9A1FA11D680F791F8A1FCF
:100D4000911DA11D6A0F711D811D911DA11D23D033
:100D500009F468943F91062E000C3019000C000C29
:100D60003019305D3193CEF68E2F9F2F0895462F88
:100D70004770405D4193B3E00FD0C9F7F5CF462FE0
:100D80004F70405D4A3318F0495D31FD4052419348
:100D900002D0A9F7E9CFB4E0A69597958795779506
:100DA0006795BA95C9F70097610571050895262FD3
:100DB000372F482F592F0A2E069457954795379568
:100DC0002795BA95C9F7620F731F841F951FA01D41
:100DD0000895992788270895002480FD060E660F40
:100DE00011F08695D1F7802D08952F923F924F9262
:100DF0005F926F927F928F929F92AF92BF92CF92AB
:100E0000DF92EF92FF920F931F93CF93DF93CDB7B3
:100E1000DEB7CA1BDB0B0FB6F894DEBF0FBECDBF2B
:100E200009942A88398848885F846E847D848C84FC
:100E30009B84AA84B984C884DF80EE80FD800C8105
:100E40001B81AA81B981CE0FD11D0FB6F894DEBFE8
:0A0E50000FBECDBFCA2FDB2F08959F
:100E5A002564002564206973207072696D652E000F
:100E6A002564206973206E6F74207072696D652E17
:020E7A00000076
:00000001FF
